:020000040800F2
:100000000050002065090008ED080008F508000808
:10001000FD080008050900080D090008000000009F
:1000200000000000000000000000000015090008AA
:1000300021090008000000002D0900083909000806
:10004000AD090008AD090008AD090008AD090008B8
:10005000AD090008AD090008AD090008AD090008A8
:10006000AD090008AD090008AD0900084509000800
:10007000AD090008AD090008AD090008AD09000888
:10008000AD090008AD090008AD090008AD09000878
:10009000AD090008AD090008AD090008AD09000868
:1000A000AD090008AD090008AD090008AD09000858
:1000B000AD090008AD090008AD090008AD09000848
:1000C000AD090008AD090008AD090008AD09000838
:1000D000AD090008AD090008AD090008AD09000828
:1000E000AD090008AD090008AD09000800000000D6
:1000F0000000000000000000000000000000000000
:0C01000000000000000000005FF808F1A3
:10010C0010B5054C237833B9044B13B10448AFF345
:10011C0000800123237010BD14000020000000009B
:10012C00F038000808B5034B1BB103490348AFF383
:10013C00008008BD0000000018000020F038000806
:10014C0080B500AF00F00AFE00F058F800F0C8F9D6
:10015C0000F0A8F900F0AEF800F016F900F042F942
:10016C0000F076F904221F491F4800F055FF00F0FB
:10017C006DFD0A211D4800F08DFD40211C4801F049
:10018C00BFFE03461A461B4B1A728021184801F019
:10019C00B7FE0346002B0CBF01230023DBB21A462B
:1001AC00144B5A720F4B1A88124B1A800D4B5A88EB
:1001BC00104B5A800B4B9A880E4BDA80094BDA881D
:1001CC000C4B9A800B4800F08BFD0346012B04D19D
:1001DC004FF40051084801F0C2FE0A2000F020FE46
:1001EC00CBE700BF98010020300000200000002069
:1001FC0000080140A00100200010014080B594B01F
:10020C0000AF07F1280328220021184603F03EFB1B
:10021C0007F1140300221A605A609A60DA601A61BE
:10022C003B1D00221A605A609A60DA600123BB629F
:10023C004FF48033FB6200233B630123BB63022337
:10024C007B644FF48033BB644FF40023FB6407F1F1
:10025C002803184601F0E0FF0346002B01D000F004
:10026C00C9F90F237B610223BB610023FB614FF4AF
:10027C0080633B6200237B6207F114030121184663
:10028C0002F04CFA0346002B01D000F0B3F9022324
:10029C007B604FF48043FB603B1D184602F0CCFBA7
:1002AC000346002B01D000F0A5F900BF5037BD4626
:1002BC0080BD000080B584B000AF3B1D00221A60E9
:1002CC005A609A602E4B2F4A1A602D4B4FF4807255
:1002DC009A602B4B01221A73294B00221A75284B5A
:1002EC004FF46022DA61264B00225A60244B042220
:1002FC001A61234800F0B8FD0346002B01D000F032
:10030C0079F900237B600123BB600723FB603B1D55
:10031C0019461B4800F07AFF0346002B01D000F071
:10032C0069F901237B600223BB603B1D194614480D
:10033C0000F06CFF0346002B01D000F05BF90223A8
:10034C007B600323BB603B1D19460D4800F05EFF2C
:10035C000346002B01D000F04DF903237B600423EE
:10036C00BB603B1D1946064800F050FF0346002BAE
:10037C0001D000F03FF900BF1037BD4680BD00BF73
:10038C00300000200024014080B500AF124B134A0E
:10039C001A60114B124A5A600F4B00229A600E4B96
:1003AC000022DA600C4B4FF480421A610A4B002297
:1003BC005A61094B00229A61074B0022DA61064B05
:1003CC0000221A62044801F0E3FD0346002B01D021
:1003DC0000F010F900BF80BDA400002000540040C4
:1003EC00A086010080B500AF174B184A1A60164B57
:1003FC004FF482725A60144B00229A60124B002206
:10040C00DA60114B00221A610F4B00225A610E4B1D
:10041C004FF400729A610C4B0822DA610A4B0022ED
:10042C001A62094B00225A62074B00229A62064B51
:10043C000A22DA62044802F0B5FB0346002B01D015
:10044C0000F0D8F800BF80BDF80000200038004054
:10045C0080B500AF114B124A1A60104B4FF4E132C9
:10046C005A600E4B00229A600C4B0022DA600B4B48
:10047C0000221A61094B0C225A61084B00229A6126
:10048C00064B0022DA61054803F021F90346002BE4
:10049C0001D000F0AFF800BF80BD00BF50010020BC
:1004AC000038014080B582B000AF0C4B5B690B4A41
:1004BC0043F001035361094B5B6903F001037B605B
:1004CC007B68002200210B2001F071F90B2001F058
:1004DC008AF900BF0837BD4680BD00BF001002403E
:1004EC0080B588B000AF07F1100300221A605A6083
:1004FC009A60DA603B4B9B693A4A43F01003936174
:10050C00384B9B6903F01003FB60FB68354B9B6910
:10051C00344A43F020039361324B9B6903F0200370
:10052C00BB60BB682F4B9B692E4A43F0040393615D
:10053C002C4B9B6903F004037B607B68294B9B6904
:10054C00284A43F008039361264B9B6903F0080388
:10055C003B603B6800224FF40051234801F0E7FC5C
:10056C0000224FF41061214801F0E1FC4FF40053DC
:10057C003B6101237B610023BB610223FB6107F11B
:10058C0010031946184801F037FBC0233B610023C8
:10059C007B610023BB6107F110031946134801F07E
:1005AC002BFB41F203033B6100237B610023BB6106
:1005BC0007F1100319460E4801F01EFB4FF41063AF
:1005CC003B6101237B610023BB610223FB6107F1CB
:1005DC0010031946054801F00FFB00BF2037BD463C
:1005EC0080BD00BF00100240001001400008014017
:1005FC00000C014080B400AF72B600BF00BFFDE735
:10060C0080B485B000AF154B9B69144A43F00103CD
:10061C009361124B9B6903F00103BB60BB680F4BEA
:10062C00DB690E4A43F08053D3610C4BDB6903F05A
:10063C0080537B607B680A4B5B68FB60FB6823F034
:10064C00E063FB60FB6843F00073FB60044AFB68EB
:10065C00536000BF1437BD4680BC70470010024089
:10066C000000014080B588B000AF786007F110033E
:10067C0000221A605A609A60DA607B681B68284A0C
:10068C00934249D1274B9B69264A43F400739361EB
:10069C00244B9B6903F40073FB60FB68214B9B6943
:1006AC00204A43F0040393611E4B9B6903F004033F
:1006BC00BB60BB680F233B6103237B6107F1100315
:1006CC001946194801F098FA184B194A1A60174B39
:1006DC0000225A60154B00229A60144B8022DA607B
:1006EC00124B4FF480721A61104B4FF480625A61B6
:1006FC000E4B20229A610D4B0022DA610B4801F05F
:10070C008DF80346002B01D0FFF774FF7B68074A76
:10071C001A62064A7B68536200BF2037BD4680BD13
:10072C00002401400010024000080140600000203D
:10073C000800024080B588B000AF786007F1100364
:10074C0000221A605A609A60DA607B681B68154A4E
:10075C00934223D1144B9B69134A43F008039361D2
:10076C00114B9B6903F00803FB60FB68C0233B61E2
:10077C0012237B610323FB6107F1100319460B481D
:10078C0001F03AFA084BDB69074A43F40013D361D2
:10079C00054BDB6903F40013BB60BB6800BF20375B
:1007AC00BD4680BD0054004000100240000C0140CA
:1007BC0080B588B000AF786007F1100300221A6092
:1007CC005A609A60DA607B681B681C4A934231D18C
:1007DC001B4BDB691A4A43F48043D361184BDB692A
:1007EC0003F48043FB60FB68154B9B69144A43F090
:1007FC0008039361124B9B6903F00803BB60BB6851
:10080C004FF420433B6102237B610323FB6107F11F
:10081C00100319460B4801F0EFF94FF480433B618C
:10082C0000237B610023BB6107F1100319460548C7
:10083C0001F0E2F900BF2037BD4680BD0038004012
:10084C0000100240000C014080B588B000AF786009
:10085C0007F1100300221A605A609A60DA607B6814
:10086C001B681C4A934231D11B4B9B691A4A43F4B7
:10087C0080439361184B9B6903F48043FB60FB68D6
:10088C00154B9B69144A43F004039361124B9B690B
:10089C0003F00403BB60BB684FF400733B6102239D
:1008AC007B610323FB6107F1100319460B4801F030
:1008BC00A3F94FF480633B6100237B610023BB6190
:1008CC0007F110031946054801F096F900BF2037CF
:1008DC00BD4680BD003801400010024000080140B8
:1008EC0080B400AF00BFFDE780B400AF00BFFDE7F0
:1008FC0080B400AF00BFFDE780B400AF00BFFDE7E0
:10090C0080B400AF00BFFDE780B400AF00BFBD46B0
:10091C0080BC704780B400AF00BFBD4680BC704740
:10092C0080B400AF00BFBD4680BC704780B500AF3F
:10093C0000F05AFA00BF80BD80B500AF024801F04C
:10094C0027F800BF80BD00BF6000002080B400AF5E
:10095C0000BFBD4680BC7047FFF7F8FF0B480C4941
:10096C000C4A002302E0D458C4500433C4188C42FF
:10097C00F9D3094A094C002301E013600432A24266
:10098C00FBD302F08BFFFFF7DBFB7047000000206E
:10099C00140000204C39000814000020B001002085
:1009AC00FEE7000080B500AF00224FF40061024862
:1009BC0001F0BDFA00BF80BD0008014080B500AF5A
:1009CC0001224FF40061024801F0B1FA00BF80BD72
:1009DC000008014080B500AF01224FF4807102483D
:1009EC0001F0A5FA00BF80BD0008014080B500AF42
:1009FC0000224FF48071024801F099FA00BF80BDCB
:100A0C000008014080B584B000AF03460A46FB7174
:100A1C001346BB71FB7943F02003DBB23B73BB790C
:100A2C007B73FFF7BFFF07F10C014FF47A730222BF
:100A3C00044802F03BF9FFF7C1FF00BF1037BD4679
:100A4C0080BD00BFF800002080B586B000AF034623
:100A5C00B9607A60FB73FB7B43F02003DBB23B7520
:100A6C00FFF7A0FF07F1140164230122084802F0EC
:100A7C001DF97B689AB24FF47A73B968044802F096
:100A8C0015F9FFF79BFF00BF1837BD4680BD00BFAF
:100A9C00F800002080B584B000AF0346FB71002342
:100AAC00FB73FFF77FFFF91D64230122084802F056
:100ABC00FDF807F10F0164230122054802F03AFA10
:100ACC00FFF77CFFFB7B18461037BD4680BD00BF8F
:100ADC00F800002080B582B000AF0346FB71FFF731
:100AEC0061FFF91D64230122044802F0DFF8FFF7CF
:100AFC0065FF00BF0837BD4680BD00BFF800002071
:100B0C0080B588B000AF0346FB71FB79072B04D18D
:100B1C0000210720FFF776FF90E0FB79172B04D11B
:100B2C0011211720FFF76EFF88E008210020FFF746
:100B3C0069FF3F210120FFF765FF03210220FFF72A
:100B4C0061FF03210320FFF75DFF03210420FFF762
:100B5C0059FF02210520FFF755FF0E210620FFF754
:100B6C0051FF00210720FFF74DFF00210820FFF760
:100B7C0049FF00210920FFF745FF324A07F118030E
:100B8C0092E8030018600433197007F1180305226A
:100B9C0019460A20FFF758FF2B4A07F1100392E879
:100BAC00030018600433197007F11003052219466D
:100BBC000B20FFF749FFC3210C20FFF723FFC421B3
:100BCC000D20FFF71FFFC5210E20FFF71BFFC621CD
:100BDC000F20FFF717FF1B4A07F1080392E80300E9
:100BEC0018600433197007F1080305221946102008
:100BFC00FFF72AFF00211120FFF704FF002112202C
:100C0C00FFF700FF00211320FFF7FCFE002114204A
:100C1C00FFF7F8FE00211520FFF7F4FE0021162047
:100C2C00FFF7F0FE11211720FFF7ECFE00211C202E
:100C3C00FFF7E8FE00211D20FFF7E4FE00BF203780
:100C4C00BD4680BD083900081039000880B500AFDA
:100C5C00FFF7CCFE00210020FFF7D4FE002101207D
:100C6C00FFF7D0FE00210220FFF7CCFE032103206A
:100C7C00FFF7C8FE00210420FFF7C4FE0021052069
:100C8C00FFF7C0FE0E210620FFF7BCFEFFF7A2FE09
:100C9C0000BF80BD80B584B000AF78600B46FB70A0
:100CAC00FFF7A4FEFB7819460520FFF7ABFE0522E3
:100CBC0079681020FFF7C8FE0020FFF7EBFE034613
:100CCC00FB73FB7B43F00203FB73FB7B1946002099
:100CDC00FFF798FEFFF77EFE00BF1037BD4680BDC4
:100CEC0080B584B000AF78600023BB73FFF75AFE69
:100CFC00A023BB7307F10E0164230122164801F0F7
:100D0C00D5FF4FF47A7320227968134801F0CEFF97
:100D1C00FFF754FE012000F083F81720FFF7BAFE0E
:100D2C000346FB73FB7B03F01003002B0FD0FB7B04
:100D3C0003F00803002B0AD1E123BB73BB7B1846DD
:100D4C00FFF7C8FE1720FFF7DBFE012300E00023AE
:100D5C0018461037BD4680BDF800002080B500AFA6
:100D6C00084B1B68074A43F010031360032000F084
:100D7C0013FD0F2000F008F8FFF742FC0023184683
:100D8C0080BD00BF0020024080B582B000AF78600B
:100D9C00124B1A68124B1B7819464FF47A73B3FB3B
:100DAC00F1F3B2FBF3F3184600F02BFD0346002BD6
:100DBC0001D001230EE07B680F2B0AD80022796842
:100DCC004FF0FF3000F0F3FC064A7B681360002301
:100DDC0000E0012318460837BD4680BD08000020FE
:100DEC00100000200C00002080B400AF054B1B78D5
:100DFC001A46054B1B681344034A136000BFBD46DB
:100E0C0080BC704710000020AC01002080B400AF03
:100E1C00024B1B681846BD4680BC7047AC010020D5
:100E2C0080B584B000AF7860FFF7F0FFB8607B68E6
:100E3C00FB60FB68B3F1FF3F05D00A4B1B781A46E9
:100E4C00FB681344FB6000BFFFF7E0FF0246BB6882
:100E5C00D31AFA689A42F7D800BF00BF1037BD46C4
:100E6C0080BD00BF1000002080B586B000AF786058
:100E7C000023FB7500233B610023BB600023FB6058
:100E8C007B68002B01D10123BEE07B689B68002BA3
:100E9C007B689B6A002B09D17B680022DA627B6835
:100EAC00002283F824207868FFF7DCFB786800F0D8
:100EBC00FFFA0346FB757B689B6A03F01003002B5B
:100ECC0040F09980FB7D002B40F095807B689B6AFD
:100EDC0023F4885323F0020343F002027B689A62E6
:100EEC007B685A687B68DB691A437B681B7B5B00F9
:100EFC001343BA681343BB607B689B68B3F5807F70
:100F0C0003D07B689B68012B02D14FF4807300E007
:100F1C0000233A6913433B617B681B7D012B19D17C
:100F2C007B681B7B002B09D17B689B69013B5A03B7
:100F3C003B69134343F400633B610BE07B689B6AA2
:100F4C0043F020027B689A627B68DB6A43F0010203
:100F5C007B68DA627B681B685B6823F469417B6899
:100F6C001B683A690A435A607B681B689A68284B6D
:100F7C0013407A681268B9680B4393607B689B686E
:100F8C00B3F5807F03D07B689B68012B04D17B6811
:100F9C001B69013B1B05FB607B681B68DB6A23F448
:100FAC0070017B681B68FA680A43DA627B681B680D
:100FBC009A68184B1340BA689A420BD17B6800228E
:100FCC00DA627B689B6A23F0030343F001027B68BF
:100FDC009A6218E07B689B6A23F0120343F01002BC
:100FEC007B689A627B68DB6A43F001027B68DA6299
:100FFC000123FB7507E07B689B6A43F010027B685A
:10100C009A620123FB75FB7D18461837BD4680BDDF
:10101C00FDF7E1FFFE0E1FFF80B586B000AFF86054
:10102C00B9607A600023FB75FB681B68644A9342C5
:10103C0004D0FB681B68634A934206D1604B5B6823
:10104C0003F47023002B40F0B380FB6893F824303A
:10105C00012B01D10223AEE0FB68012283F824208E
:10106C00F86800F0CBF90346FB75FB7D002B40F0D4
:10107C009A80FB689B6A23F4706323F0010343F4AA
:10108C008072FB689A62FB681B684E4A934205D1DA
:10109C004B4B5B6803F47023002B15D1FB689B6AE8
:1010AC0023F48012FB689A62FB681B685B6803F48C
:1010BC008063002B26D0FB689B6A23F4405343F4D7
:1010CC008052FB689A621DE0FB689B6A43F48012B5
:1010DC00FB689A62FB681B68394A934204D0FB6830
:1010EC001B68384A93420DD1354B5B6803F480631F
:1010FC00002B07D0FB689B6A23F4405343F48052C7
:10110C00FB689A62FB689B6A03F48053002B06D041
:10111C00FB68DB6A23F00602FB68DA6202E0FB681C
:10112C000022DA62FB68002283F82420FB681B6A29
:10113C00254A9A62FB681B6A244ADA62FB681B6ABE
:10114C00234A1A63FB681B686FF002021A60FB6883
:10115C001B689A68FB681B6842F480729A60FB6893
:10116C00186AFB681B684C331946BA687B6800F038
:10117C00AFFBFB681B689B6803F46023B3F5602F1F
:10118C0008D1FB681B689A68FB681B6842F4A002D4
:10119C009A600FE0FB681B689A68FB681B6842F456
:1011AC0080129A6006E0FB68002283F8242001E09C
:1011BC000123FB75FB7D18461837BD4680BD00BF6B
:1011CC0000240140002801403F150008BB15000811
:1011DC00D715000880B483B000AF786000BF0C371F
:1011EC00BD4680BC704780B483B000AF786000BF50
:1011FC000C37BD4680BC704780B483B000AF7860BC
:10120C0000BF0C37BD4680BC7047000080B485B071
:10121C0000AF786039600023FB730023BB607B68F0
:10122C0093F82430012B01D10223DCE07B680122EE
:10123C0083F824203B685B68062B1CD87B681B68F2
:10124C00596B3B685A6813469B001344053B1F229D
:10125C0002FA03F3DB4319403B6818683B685A6891
:10126C0013469B001344053B00FA03F27B681B6892
:10127C000A435A633CE03B685B680C2B1CD87B68C8
:10128C001B68196B3B685A6813469B001344233B3D
:10129C001F2202FA03F3DB4319403B6818683B68D2
:1012AC005A6813469B001344233B00FA03F27B68F5
:1012BC001B680A431A631BE07B681B68D96A3B688E
:1012CC005A6813469B001344413B1F2202FA03F356
:1012DC00DB4319403B6818683B685A6813469B000F
:1012EC001344413B00FA03F27B681B680A43DA6241
:1012FC003B681B68092B1CD97B681B68D9683B6849
:10130C001A6813465B0013441E3B072202FA03F3D0
:10131C00DB4319403B6898683B681A6813465B00CE
:10132C0013441E3B00FA03F27B681B680A43DA6025
:10133C0019E07B681B6819693B681A6813465B00E7
:10134C001344072202FA03F3DB4319403B68986805
:10135C003B681A6813465B00134400FA03F27B687F
:10136C001B680A431A613B681B68102B03D03B684F
:10137C001B68112B32D17B681B681D4A934225D107
:10138C007B681B689B6803F40003002B26D17B68E9
:10139C001B689A687B681B6842F400029A603B6881
:1013AC001B68102B1AD1134B1B68134AA2FB032387
:1013BC009A0C13469B0013445B00BB6002E0BB68B5
:1013CC00013BBB60BB68002BF9D107E07B689B6AD3
:1013DC0043F020027B689A620123FB737B68002236
:1013EC0083F82420FB7B18461437BD4680BC70471D
:1013FC00002401400800002083DE1B4380B584B02C
:10140C0000AF78600023FB600023BB607B681B6827
:10141C009B6803F00103012B40D07B681B689A6822
:10142C007B681B6842F001029A601F4B1B681F4AC5
:10143C00A2FB03239B0CBB6002E0BB68013BBB60BF
:10144C00BB68002BF9D1FFF7E1FCF8601FE0FFF758
:10145C00DDFC0246FB68D31A022B18D97B681B688B
:10146C009B6803F00103012B11D07B689B6A43F04E
:10147C0010027B689A627B68DB6A43F001027B682E
:10148C00DA627B68002283F82420012307E07B6862
:10149C001B689B6803F00103012BD8D1002318466D
:1014AC001037BD4680BD00BF0800002083DE1B4303
:1014BC0080B584B000AF78600023FB607B681B684C
:1014CC009B6803F00103012B2ED17B681B689A6883
:1014DC007B681B6822F001029A60FFF797FCF860AA
:1014EC001BE0FFF793FC0246FB68D31A022B14D9BE
:1014FC007B681B689B6803F00103012B0DD17B6893
:10150C009B6A43F010027B689A627B68DB6A43F04B
:10151C0001027B68DA62012307E07B681B689B6829
:10152C0003F00103012BDCD0002318461037BD4615
:10153C0080BD80B584B000AF78607B685B6AFB606F
:10154C00FB689B6A03F05003002B27D1FB689B6A56
:10155C0043F40072FB689A62FB681B689B6803F497
:10156C006023B3F5602F15D1FB681B7B002B11D1C9
:10157C00FB689B6A23F48072FB689A62FB689B6A27
:10158C0003F48053002B05D1FB689B6A43F00102E6
:10159C00FB689A62F868FFF71DFE04E0FB681B6AA3
:1015AC001B6B7868984700BF1037BD4680BD80B56F
:1015BC0084B000AF78607B685B6AFB60F868FFF70B
:1015CC0012FE00BF1037BD4680BD80B584B000AFA1
:1015DC0078607B685B6AFB60FB689B6A43F0400247
:1015EC00FB689A62FB68DB6A43F00402FB68DA6210
:1015FC00F868FFF701FE00BF1037BD4680BD000044
:10160C0080B485B000AF78607B6803F00703FB60A3
:10161C000C4BDB68BB60BA684FF6FF031340BB6032
:10162C00FB681A02BB68134343F0BF6343F40033F7
:10163C00BB60044ABB68D36000BF1437BD4680BC96
:10164C00704700BF00ED00E080B400AF044BDB68D6
:10165C001B0A03F007031846BD4680BC704700BF49
:10166C0000ED00E080B483B000AF0346FB7197F946
:10167C000730002B0BDBFB7903F01F02064997F9AF
:10168C0007305B09012000FA02F241F8232000BF69
:10169C000C37BD4680BC704700E100E080B483B0DD
:1016AC0000AF03463960FB7197F90730002B0ADB5A
:1016BC003B68DAB20C4997F907301201D2B20B44ED
:1016CC0083F800230AE03B68DAB20849FB7903F09F
:1016DC000F03043B1201D2B20B441A7600BF0C3735
:1016EC00BD4680BC704700BF00E100E000ED00E0AB
:1016FC0080B489B000AFF860B9607A60FB6803F021
:10170C000703FB61FB69C3F10703042B28BF042308
:10171C00BB61FB690433062B02D9FB69033B00E078
:10172C0000237B614FF0FF32BB6902FA03F3DA430B
:10173C00BB681A407B699A404FF0FF317B6901FA14
:10174C0003F3D9437B680B40134318462437BD463B
:10175C0080BC704780B582B000AF78607B68013B7D
:10176C00B3F1807F01D301230FE00A4A7B68013B70
:10177C0053600F214FF0FF30FFF790FF054B002215
:10178C009A60044B07221A60002318460837BD469E
:10179C0080BD00BF10E000E080B582B000AF786083
:1017AC007868FFF72DFF00BF0837BD4680BD80B5B8
:1017BC0086B000AF0346B9607A60FB7300237B618F
:1017CC00FFF742FF78617A68B9687869FFF790FF94
:1017DC00024697F90F3011461846FFF75FFF00BF1E
:1017EC001837BD4680BD80B582B000AF0346FB7193
:1017FC0097F907301846FFF735FF00BF0837BD468D
:10180C0080BD80B582B000AF78607868FFF7A2FF2A
:10181C00034618460837BD4680BD000080B485B02D
:10182C0000AF78600023FB607B68002B01D10123A3
:10183C0043E07B681B681A46224B1344224AA2FBE6
:10184C0003231B099A007B681A647B681F4ADA63BE
:10185C007B68022283F821207B681B681B68FB6075
:10186C00FB6823F47F5323F03003FB607B685A68DA
:10187C007B689B681A437B68DB681A437B681B692F
:10188C001A437B685B691A437B689B691A437B68C4
:10189C00DB691343FA681343FB607B681B68FA68C7
:1018AC001A607B6800229A637B68012283F82120EE
:1018BC007B68002283F82020002318461437BD468D
:1018CC0080BC7047F8FFFDBFCDCCCCCC00000240F3
:1018DC0080B586B000AFF860B9607A603B600023D9
:1018EC00FB75FB6893F82030012B01D102234BE0F0
:1018FC00FB68012283F82020FB6893F82130DBB2CF
:10190C00012B3AD1FB68022283F82120FB680022CC
:10191C009A63FB681B681A68FB681B6822F001025B
:10192C001A603B687A68B968F86800F037F9FB68A8
:10193C00DB6A002B08D0FB681B681A68FB681B6805
:10194C0042F00E021A600FE0FB681B681A68FB6815
:10195C001B6822F004021A60FB681B681A68FB689B
:10196C001B6842F00A021A60FB681B681A68FB6865
:10197C001B6842F001021A6005E0FB68002283F844
:10198C0020200223FB75FB7D18461837BD4680BD11
:10199C0080B584B000AF78607B68DB6B1B68FB6044
:1019AC007B681B681B68BB607B681B6C04229A40BD
:1019BC00FB681340002B4FD0BB6803F00403002BD3
:1019CC004AD07B681B681B6803F02003002B07D1EF
:1019DC007B681B681A687B681B6822F004021A601B
:1019EC007B681B68664A934229D07B681B68654AF2
:1019FC00934222D07B681B68634A93421AD07B685F
:101A0C001B68624A934212D07B681B68604A9342FF
:101A1C000AD07B681B685F4A934202D14FF4800363
:101A2C000EE04FF080630BE04FF4802308E04FF49E
:101A3C00804305E04FF4806302E0402300E0042380
:101A4C00554A53607B68DB6A002B00F094807B68FE
:101A5C00DB6A786898478EE07B681B6C02229A40A0
:101A6C00FB681340002B56D0BB6803F00203002B1D
:101A7C0051D07B681B681B6803F02003002B0BD133
:101A8C007B681B681A687B681B6822F00A021A6064
:101A9C007B68012283F821207B681B68384A9342BB
:101AAC0029D07B681B68374A934222D07B681B681D
:101ABC00354A93421AD07B681B68344A934212D041
:101ACC007B681B68324A93420AD07B681B68314A98
:101ADC00934202D14FF400130EE04FF000730BE071
:101AEC004FF4003308E04FF4005305E04FF400735B
:101AFC0002E0202300E00223274A53607B68002287
:101B0C0083F820207B689B6A002B34D07B689B6A0F
:101B1C00786898472FE07B681B6C08229A40FB681A
:101B2C001340002B28D0BB6803F00803002B23D0F4
:101B3C007B681B681A687B681B6822F00E021A60AF
:101B4C007B681A6C7B68DB6B012101FA02F25A602C
:101B5C007B6801229A637B68012283F821207B68D1
:101B6C00002283F820207B681B6B002B04D07B6841
:101B7C001B6B7868984700BF00BF1037BD4680BD0F
:101B8C00080002401C0002403000024044000240A9
:101B9C00580002406C0002400000024080B485B046
:101BAC0000AFF860B9607A603B60FB681A6CFB6848
:101BBC00DB6B012101FA02F25A60FB681B683A6880
:101BCC005A60FB685B68102B08D1FB681B687A684D
:101BDC009A60FB681B68BA68DA6007E0FB681B68F0
:101BEC00BA689A60FB681B687A68DA6000BF1437C1
:101BFC00BD4680BC7047000080B48BB000AF7860ED
:101C0C00396000237B6200233B6269E101227B6A1D
:101C1C0002FA03F3FB613B681B68FA691340BB6172
:101C2C00BA69FB699A4240F058813B685B689A4AF2
:101C3C0093425ED0984A934275D8984A934258D0B2
:101C4C00964A93426FD8964A934252D0944A934202
:101C5C0069D8944A93424CD0924A934263D8924AA0
:101C6C00934246D0904A93425DD8122B2AD8122B1D
:101C7C0059D801A252F823F0FF1C0008D91C000807
:101C8C00EB1C00082D1D0008331D0008331D000837
:101C9C00331D0008331D0008331D0008331D0008D8
:101CAC00331D0008331D0008331D0008331D0008C8
:101CBC00331D0008331D0008331D0008E11C00080B
:101CCC00F51C0008794A934213D02CE03B68DB6882
:101CDC003B6229E03B68DB6804333B6224E03B68F1
:101CEC00DB6808333B621FE03B68DB680C333B620C
:101CFC001AE03B689B68002B02D104233B6213E083
:101D0C003B689B68012B05D108233B627B68FA6911
:101D1C001A6109E008233B627B68FA695A6103E0A7
:101D2C0000233B6200E000BFBB69FF2B01D87B683E
:101D3C0001E07B6804337B61BB69FF2B02D87B6AB3
:101D4C009B0002E07B6A083B9B003B617B691A6845
:101D5C000F213B6901FA03F3DB431A40396A3B69F3
:101D6C0001FA03F31A437B691A603B685B6803F062
:101D7C008053002B00F0B1804D4B9B694C4A43F0D3
:101D8C00010393614A4B9B6903F00103BB60BB6881
:101D9C00484A7B6A9B08023352F82330FB607B6A0B
:101DAC0003F003039B000F2202FA03F3DB43FA68F0
:101DBC001340FB607B68404A934213D07B683F4AD8
:101DCC0093420DD07B683E4A934207D07B683D4AD4
:101DDC00934201D1032306E0042304E0022302E032
:101DEC00012300E000237A6A02F003029200934080
:101DFC00FA681343FB602F497B6A9B080233FA682D
:101E0C0041F823203B685B6803F48013002B06D059
:101E1C002D4B9A682C49BB6913438B6006E02A4B07
:101E2C009A68BB69DB43284913408B603B685B684D
:101E3C0003F40013002B06D0234BDA682249BB694C
:101E4C001343CB6006E0204BDA68BB69DB431E49C9
:101E5C001340CB603B685B6803F40033002B06D067
:101E6C00194B5A681849BB6913434B6006E0164B73
:101E7C005A68BB69DB43144913404B603B685B6891
:101E8C0003F48033002B21D00F4B1A680E49BB6929
:101E9C0013430B6021E000BF000032100000311032
:101EAC000000221000002110000012100000111080
:101EBC00001002400000014000080140000C0140ED
:101ECC000010014000140140000401400B4B1A6843
:101EDC00BB69DB43094913400B607B6A01337B62AE
:101EEC003B681A687B6A22FA03F3002B7FF48EAEF0
:101EFC0000BF00BF2C37BD4680BC704700040140BA
:101F0C0080B485B000AF78600B467B807B689A68A4
:101F1C007B881340002B02D00123FB7301E00023CC
:101F2C00FB73FB7B18461437BD4680BC704780B4EE
:101F3C0083B000AF78600B467B8013467B707B7858
:101F4C00002B03D07A887B681A6103E07B881A0423
:101F5C007B681A6100BF0C37BD4680BC704780B4EB
:101F6C0085B000AF78600B467B807B68DB68FB60DC
:101F7C007A88FB6813401A04FB68D9437B880B40B2
:101F8C001A437B681A6100BF1437BD4680BC70478A
:101F9C0080B584B000AF78607B68002B01D1012341
:101FAC002BE17B6893F83D30DBB2002B06D17B68CC
:101FBC00002283F83C207868FEF7BCFB7B68242267
:101FCC0083F83D207B681B681A687B681B6822F0CD
:101FDC0001021A607B681B681A687B681B6842F4F4
:101FEC0000421A607B681B681A687B681B6822F4C5
:101FFC0000421A6000F0DAFCF8607B685B68814A8A
:10200C00934207D8FB68804A934294BF0123002374
:10201C00DBB206E0FB687D4A934294BF01230023A8
:10202C00DBB2002B01D00123E7E0FB68784AA2FB6E
:10203C0003239B0CBB607B681B685B6823F03F0130
:10204C007B681B68BA680A435A607B681B681B6A0A
:10205C0023F03F017B685B686A4A934202D8BB68F5
:10206C00013309E0BB684FF4967202FB03F3694A33
:10207C00A2FB03239B0901337A6812680B4313629A
:10208C007B681B68DB6923F44F4222F0FF027B68FC
:10209C005B685C498B4219D8FB68591E7B685B688E
:1020AC005B00B1FBF3F3591C40F6FC730B40002BA7
:1020BC000AD0FB68591E7B685B685B00B1FBF3F3CD
:1020CC000133C3F30B0351E004234FE07B689B689F
:1020DC00002B11D1FB68581E7B6859680B465B00BE
:1020EC000B44B0FBF3F30133C3F30B03002B0CBF16
:1020FC0001230023DBB212E0FB68581E7B68596891
:10210C000B469B000B4499000B44B0FBF3F30133DB
:10211C00C3F30B03002B0CBF01230023DBB2002BFA
:10212C0001D0012322E07B689B68002B0ED1FB6859
:10213C00581E7B6859680B465B000B44B0FBF3F3ED
:10214C000133C3F30B0343F400430FE0FB68581E49
:10215C007B6859680B469B000B4499000B44B0FB01
:10216C00F3F30133C3F30B0343F440437968096879
:10217C001343CB617B681B681B6823F0C0017B6831
:10218C00DA697B681B6A1A437B681B680A431A600E
:10219C007B681B689B6823F4034323F0FF037A6876
:1021AC0011697A68D26811437A6812680B4393609C
:1021BC007B681B68DB6823F0FF017B685A697B68CE
:1021CC009B691A437B681B680A43DA607B681B684F
:1021DC001A687B681B6842F001021A607B68002257
:1021EC001A647B68202283F83D207B6800221A63E6
:1021FC007B68002283F83E20002318461037BD462A
:10220C0080BD00BFA08601007F841E00FF083D003A
:10221C0083DE1B43D34D621080B586B000AF78606F
:10222C007B68002B01D1012372E27B681B6803F0F1
:10223C000103002B00F08780924B5B6803F00C03CA
:10224C00042B0CD08F4B5B6803F00C03082B12D1C2
:10225C008C4B5B6803F48033B3F5803F0BD1894B17
:10226C001B6803F40033002B6CD07B685B68002B7D
:10227C0068D101234CE27B685B68B3F5803F06D1E3
:10228C00804B1B687F4A43F4803313602EE07B68DD
:10229C005B68002B0CD17B4B1B687A4A23F4803390
:1022AC001360784B1B68774A23F4802313601DE07E
:1022BC007B685B68B3F5A02F0CD1724B1B68714A1D
:1022CC0043F4802313606F4B1B686E4A43F48033D6
:1022DC0013600BE06B4B1B686A4A23F4803313606A
:1022EC00684B1B68674A23F4802313607B685B6828
:1022FC00002B13D0FEF78AFD386108E0FEF786FD4F
:10230C0002463B69D31A642B01D9032300E25D4BCF
:10231C001B6803F40033002BF0D014E0FEF776FDBD
:10232C00386108E0FEF772FD02463B69D31A642B54
:10233C0001D90323ECE1534B1B6803F40033002B4E
:10234C00F0D100E000BF7B681B6803F00203002B98
:10235C0063D04C4B5B6803F00C03002B0BD0494B48
:10236C005B6803F00C03082B1CD1464B5B6803F431
:10237C008033002B16D1434B1B6803F00203002B58
:10238C0005D07B681B69012B01D00123C0E13D4BBB
:10239C001B6823F0F8027B685B69DB003949134347
:1023AC000B603AE07B681B69002B20D0364B012276
:1023BC001A60FEF72BFD386108E0FEF727FD024698
:1023CC003B69D31A022B01D90323A1E12D4B1B68C6
:1023DC0003F00203002BF0D02A4B1B6823F0F80209
:1023EC007B685B69DB00274913430B6015E0264BC8
:1023FC0000221A60FEF70AFD386108E0FEF706FDC0
:10240C0002463B69D31A022B01D9032380E11D4BF1
:10241C001B6803F00203002BF0D17B681B6803F0F0
:10242C000803002B3AD07B689B69002B19D0174B03
:10243C0001221A60FEF7EAFC386108E0FEF7E6FCC0
:10244C0002463B69D31A022B01D9032360E10D4BE1
:10245C005B6A03F00203002BF0D0012000F0CEFAEF
:10246C001CE00A4B00221A60FEF7D0FC38610FE02A
:10247C00FEF7CCFC02463B69D31A022B08D9032386
:10248C0046E100BF0010024000004242800442427C
:10249C00924B5B6A03F00203002BE9D17B681B684B
:1024AC0003F00403002B00F0A6800023FB758B4B7C
:1024BC00DB6903F08053002B0DD1884BDB69874A15
:1024CC0043F08053D361854BDB6903F08053BB60D1
:1024DC00BB680123FB75824B1B6803F48073002BD4
:1024EC0018D17F4B1B687E4A43F480731360FEF750
:1024FC008DFC386108E0FEF789FC02463B69D31A73
:10250C00642B01D9032303E1754B1B6803F480731F
:10251C00002BF0D07B68DB68012B06D16F4B1B6A5C
:10252C006E4A43F0010313622DE07B68DB68002BDD
:10253C000CD16A4B1B6A694A23F001031362674B87
:10254C001B6A664A23F0040313621CE07B68DB6899
:10255C00052B0CD1614B1B6A604A43F004031362D8
:10256C005E4B1B6A5D4A43F0010313620BE05B4B4D
:10257C001B6A5A4A23F001031362584B1B6A574AD1
:10258C0023F0040313627B68DB68002B15D0FEF785
:10259C003DFC38610AE0FEF739FC02463B69D31A70
:1025AC0041F28832934201D90323B1E04B4B1B6AB1
:1025BC0003F00203002BEED014E0FEF727FC386189
:1025CC000AE0FEF723FC02463B69D31A41F288323B
:1025DC00934201D903239BE0404B1B6A03F0020397
:1025EC00002BEED1FB7D012B05D13C4BDB693B4A2B
:1025FC0023F08053D3617B68DB69002B00F087806C
:10260C00364B5B6803F00C03082B61D07B68DB69ED
:10261C00022B46D1334B00221A60FEF7F7FB3861D0
:10262C0008E0FEF7F3FB02463B69D31A022B01D9F3
:10263C0003236DE0294B1B6803F00073002BF0D1D2
:10264C007B681B6AB3F5803F08D1244B5B6823F48D
:10265C0000327B689B68214913434B601F4B5B68BE
:10266C0023F474127B68196A7B685B6A0B431B4901
:10267C0013434B601B4B01221A60FEF7C7FB3861FA
:10268C0008E0FEF7C3FB02463B69D31A022B01D9C3
:10269C0003233DE0114B1B6803F00073002BF0D0BB
:1026AC0035E0104B00221A60FEF7B0FB386108E0F1
:1026BC00FEF7ACFB02463B69D31A022B01D903236C
:1026CC0026E0064B1B6803F00073002BF0D11EE0D4
:1026DC007B68DB69012B07D1012319E00010024054
:1026EC0000700040600042420B4B5B68FB60FB6873
:1026FC0003F480327B681B6A9A4206D1FB6803F4B0
:10270C0070127B685B6A9A4201D0012300E00023BF
:10271C0018461837BD4680BD0010024080B584B005
:10272C0000AF786039607B68002B01D10123D0E0C9
:10273C006A4B1B6803F007033A689A4210D9674B3F
:10274C001B6823F0070265493B6813430B60634B1E
:10275C001B6803F007033A689A4201D00123B8E0E2
:10276C007B681B6803F00203002B20D07B681B687E
:10277C0003F00403002B05D0594B5B68584A43F413
:10278C00E06353607B681B6803F00803002B05D0E3
:10279C00534B5B68524A43F460535360504B5B6835
:1027AC0023F0F0027B689B684D4913434B607B68B8
:1027BC001B6803F00103002B40D07B685B68012B86
:1027CC0007D1474B1B6803F40033002B15D10123B1
:1027DC007FE07B685B68022B07D1414B1B6803F0E1
:1027EC000073002B09D1012373E03D4B1B6803F0F0
:1027FC000203002B01D101236BE0394B5B6823F002
:10280C0003027B685B68364913434B60FEF7FEFAA4
:10281C00F8600AE0FEF7FAFA0246FB68D31A41F2B6
:10282C008832934201D9032353E02D4B5B6803F0AC
:10283C000C027B685B689B009A42EBD1274B1B68B0
:10284C0003F007033A689A4210D2244B1B6823F01A
:10285C00070222493B6813430B60204B1B6803F0B3
:10286C0007033A689A4201D0012332E07B681B6867
:10287C0003F00403002B08D0194B5B6823F4E062CF
:10288C007B68DB68164913434B607B681B6803F05D
:10289C000803002B09D0124B5B6823F460527B6851
:1028AC001B69DB000E4913434B6000F021F8024614
:1028BC000B4B5B681B0903F00F030A49CB5C22FA34
:1028CC0003F3094A1360094B1B681846FEF75CFAC0
:1028DC00002318461037BD4680BD00BF00200240C3
:1028EC000010024018390008080000200C000020DD
:1028FC0080B487B000AF0023FB600023BB600023D3
:10290C007B6100237B6000233B611E4B5B68FB609B
:10291C00FB6803F00C03042B02D0082B03D027E038
:10292C00194B3B6127E0FB689B0C03F00F03174A24
:10293C00D35C7B60FB6803F48033002B10D0114B0D
:10294C005B685B0C03F00103114AD35CBB607B68D2
:10295C000D4A03FB02F2BB68B2FBF3F37B6104E0AC
:10296C007B680C4A02FB03F37B617B693B6102E0F1
:10297C00054B3B6100BF3B6918461C37BD4680BC0C
:10298C00704700BF0010024000127A003039000876
:10299C004039000800093D0080B400AF024B1B68B1
:1029AC001846BD4680BC70470800002080B500AFBB
:1029BC00FFF7F2FF0246054B5B681B0A03F00703A7
:1029CC000349CB5C22FA03F3184680BD0010024089
:1029DC002839000880B500AFFFF7DEFF0246054B33
:1029EC005B68DB0A03F007030349CB5C22FA03F3B1
:1029FC00184680BD001002402839000880B485B00C
:102A0C0000AF78600A4B1B680A4AA2FB03235B0ADF
:102A1C007A6802FB03F3FB6000BFFB685A1EFA6086
:102A2C00002BF9D100BF00BF1437BD4680BC7047E6
:102A3C0008000020D34D621080B586B000AF7860DE
:102A4C0000233B610023FB607B681B6803F00103E0
:102A5C00002B7DD00023FB754F4BDB6903F08053BB
:102A6C00002B0DD14C4BDB694B4A43F08053D361A7
:102A7C00494BDB6903F08053BB60BB680123FB75DA
:102A8C00464B1B6803F48073002B18D1434B1B6817
:102A9C00424A43F480731360FEF7B8F9386108E0DA
:102AAC00FEF7B4F902463B69D31A642B01D9032310
:102ABC006DE03A4B1B6803F48073002BF0D0364B5F
:102ACC001B6A03F44073FB60FB68002B2ED07B6801
:102ADC005B6803F44073FA689A4227D02E4B1B6A4A
:102AEC0023F44073FB602E4B01221A602C4B002206
:102AFC001A60294AFB681362FB6803F00103002B80
:102B0C0014D0FEF783F938610AE0FEF77FF902462C
:102B1C003B69D31A41F28832934201D9032336E040
:102B2C001D4B1B6A03F00203002BEED01A4B1B6AE1
:102B3C0023F440727B685B68174913430B62FB7D7F
:102B4C00012B05D1144BDB69134A23F08053D3615D
:102B5C007B681B6803F00203002B08D00E4B5B68EC
:102B6C0023F440427B689B680B4913434B607B68A2
:102B7C001B6803F01003002B08D0074B5B6823F491
:102B8C0080027B68DB68044913434B6000231846C2
:102B9C001837BD4680BD00BF0010024000700040D9
:102BAC004004424280B582B000AF78607B68002B55
:102BBC0001D1012376E07B685B6A002B08D17B682E
:102BCC005B68B3F5827F09D07B680022DA6105E08F
:102BDC007B6800221A617B6800225A617B680022A4
:102BEC009A627B6893F85130DBB2002B06D17B687C
:102BFC00002283F850207868FDF7DAFD7B6802220A
:102C0C0083F851207B681B681A687B681B6822F06C
:102C1C0040021A607B685B6803F482727B689B6875
:102C2C0003F404431A437B68DB6803F400631A4320
:102C3C007B681B6903F002031A437B685B6903F032
:102C4C0001031A437B689B6903F400731A437B6886
:102C5C00DB6903F038031A437B681B6A03F08003BB
:102C6C0042EA03017B689B6A03F400527B681B6891
:102C7C000A431A607B689B691A0C7B681B6802F01C
:102C8C0004025A607B681B68DA697B681B6822F453
:102C9C000062DA617B6800225A657B68012283F846
:102CAC005120002318460837BD4680BD80B588B03A
:102CBC0000AFF860B9603B601346FB80FEF7A6F8E6
:102CCC00F861FB887B83FB6893F85130DBB2012BF6
:102CDC0001D002232AE1BB68002B02D0FB88002B19
:102CEC0001D1012322E1FB6893F85030012B01D173
:102CFC0002231BE1FB68012283F85020FB680322AE
:102D0C0083F85120FB6800225A65FB68BA681A6385
:102D1C00FB68FA889A86FB68FA88DA86FB680022D8
:102D2C009A63FB6800229A87FB680022DA87FB68AB
:102D3C0000225A64FB6800221A64FB689B68B3F596
:102D4C00004F0FD1FB681B681A68FB681B6822F0E8
:102D5C0040021A60FB681B681A68FB681B6842F427
:102D6C0080421A60FB681B681B6803F04003402B11
:102D7C0007D0FB681B681A68FB681B6842F04002AE
:102D8C001A60FB68DB68B3F5006F52D1FB685B68B7
:102D9C00002B02D07B8B012B45D1FB681B6B1A8857
:102DAC00FB681B68DA60FB681B6B9A1CFB681A6378
:102DBC00FB68DB8E9BB2013B9AB2FB68DA8632E091
:102DCC00FB681B689B6803F00203022B12D1FB68A3
:102DDC001B6B1A88FB681B68DA60FB681B6B9A1C00
:102DEC00FB681A63FB68DB8E9BB2013B9AB2FB68F3
:102DFC00DA8618E0FEF70AF80246FB69D31A3A683D
:102E0C009A4203D83B68B3F1FF3F02D13B68002BD9
:102E1C0009D1FB68012283F85120FB68002283F85A
:102E2C005020032382E0FB68DB8E9BB2002BC7D1C2
:102E3C0053E0FB685B68002B02D07B8B012B47D1E6
:102E4C00FB681A6BFB681B680C3312781A70FB68F2
:102E5C001B6B5A1CFB681A63FB68DB8E9BB2013B35
:102E6C009AB2FB68DA8633E0FB681B689B6803F058
:102E7C000203022B13D1FB681A6BFB681B680C3323
:102E8C0012781A70FB681B6B5A1CFB681A63FB6880
:102E9C00DB8E9BB2013B9AB2FB68DA8618E0FDF739
:102EAC00B5FF0246FB69D31A3A689A4203D83B68CD
:102EBC00B3F1FF3F02D13B68002B09D1FB68012223
:102ECC0083F85120FB68002283F8502003232DE067
:102EDC00FB68DB8E9BB2002BC6D1FA693968F868A7
:102EEC0000F0C4FB0346002B02D0FB6820225A657D
:102EFC00FB689B68002B0AD100237B61FB681B6875
:102F0C00DB687B61FB681B689B687B617B69FB688A
:102F1C00012283F85120FB68002283F85020FB68C3
:102F2C005B6D002B01D0012300E0002318462037F5
:102F3C00BD4680BD80B588B002AFF860B9603B601B
:102F4C001346FB80FB6893F85130DBB2012B01D0A8
:102F5C00022304E1FB685B68B3F5827F12D1FB6846
:102F6C009B68002B0ED1FB68042283F85120FA8851
:102F7C003B6800931346BA68B968F86800F0F3F838
:102F8C000346ECE0FDF742FF7861BB68002B02D0F2
:102F9C00FB88002B01D10123E1E0FB6893F8503052
:102FAC00012B01D10223DAE0FB68012283F85020C7
:102FBC00FB68042283F85120FB6800225A65FB68E9
:102FCC00BA689A63FB68FA889A87FB68FA88DA878A
:102FDC00FB6800221A63FB6800229A86FB680022B9
:102FEC00DA86FB6800221A64FB6800225A64FB68CC
:102FFC009B68B3F5004F0FD1FB681B681A68FB6820
:10300C001B6822F040021A60FB681B681A68FB6898
:10301C001B6822F480421A60FB681B681B6803F073
:10302C004003402B07D0FB681B681A68FB681B68C1
:10303C0042F040021A60FB68DB68002B70D135E06F
:10304C00FB681B689B6803F00103012B15D1FB681F
:10305C001B6803F10C02FB689B6B1278D2B21A70DE
:10306C00FB689B6B5A1CFB689A63FB68DB8F9BB2FB
:10307C00013B9AB2FB68DA8718E0FDF7C7FE0246FF
:10308C007B69D31A3A689A4203D83B68B3F1FF3F85
:10309C0002D13B68002B09D1FB68012283F8512037
:1030AC00FB68002283F85020032358E0FB68DB8F79
:1030BC009BB2002BC4D138E0FB681B689B6803F003
:1030CC000103012B13D1FB681B68DA68FB689B6B4F
:1030DC0092B21A80FB689B6B9A1CFB689A63FB6824
:1030EC00DB8F9BB2013B9AB2FB68DA8718E0FDF7E5
:1030FC008DFE02467B69D31A3A689A4203D83B6824
:10310C00B3F1FF3F02D13B68002B09D1FB680122D0
:10311C0083F85120FB68002283F8502003231EE023
:10312C00FB68DB8F9BB2002BC6D17A693968F868D3
:10313C0000F04AFA0346002B02D0FB6820225A65A5
:10314C00FB68012283F85120FB68002283F8502091
:10315C00FB685B6D002B01D0012300E000231846B7
:10316C001837BD4680BD80B58AB000AFF860B96035
:10317C007A607B8001237B62FDF748FE3862FB6836
:10318C0093F85130FB77FB685B68BB617B88FB82F3
:10319C00FB7F012B0CD0BB69B3F5827F06D1FB689A
:1031AC009B68002B02D1FB7F042B01D002237FE113
:1031BC00BB68002B05D07B68002B02D07B88002BD2
:1031CC0001D1012374E1FB6893F85030012B01D13C
:1031DC0002236DE1FB68012283F85020FB6893F811
:1031EC005130DBB2042B03D0FB68052283F851204D
:1031FC00FB6800225A65FB687A689A63FB687A88D8
:10320C00DA87FB687A889A87FB68BA681A63FB6866
:10321C007A88DA86FB687A889A86FB6800221A64B8
:10322C00FB6800225A64FB681B681B6803F04003B0
:10323C00402B07D0FB681B681A68FB681B6842F0C0
:10324C0040021A60FB68DB68B3F5006F7ED1FB6847
:10325C005B68002B02D0FB8A012B6CD1FB681B6BCB
:10326C001A88FB681B68DA60FB681B6B9A1CFB688E
:10327C001A63FB68DB8E9BB2013B9AB2FB68DA8661
:10328C0059E0FB681B689B6803F00203022B1BD1FF
:10329C00FB68DB8E9BB2002B16D07B6A012B13D103
:1032AC00FB681B6B1A88FB681B68DA60FB681B6B7E
:1032BC009A1CFB681A63FB68DB8E9BB2013B9AB2CB
:1032CC00FB68DA8600237B62FB681B689B6803F053
:1032DC000103012B19D1FB68DB8F9BB2002B14D09F
:1032EC00FB681B68DA68FB689B6B92B21A80FB6800
:1032FC009B6B9A1CFB689A63FB68DB8F9BB2013B50
:10330C009AB2FB68DA8701237B62FDF77FFD0246E8
:10331C003B6AD31A3A6B9A420DD83B6BB3F1FF3F21
:10332C0009D0FB68012283F85120FB68002283F846
:10333C0050200323BCE0FB68DB8E9BB2002BA0D19A
:10334C00FB68DB8F9BB2002B9BD182E0FB685B6838
:10335C00002B02D0FB8A012B71D1FB681A6BFB6826
:10336C001B680C3312781A70FB681B6B5A1CFB68B9
:10337C001A63FB68DB8E9BB2013B9AB2FB68DA8660
:10338C005DE0FB681B689B6803F00203022B1CD1F9
:10339C00FB68DB8E9BB2002B17D07B6A012B14D100
:1033AC00FB681A6BFB681B680C3312781A70FB688D
:1033BC001B6B5A1CFB681A63FB68DB8E9BB2013BD0
:1033CC009AB2FB68DA8600237B62FB681B689B68F9
:1033DC0003F00103012B19D1FB68DB8F9BB2002B8F
:1033EC0014D0FB681B68DA68FB689B6BD2B21A704E
:1033FC00FB689B6B5A1CFB689A63FB68DB8F9BB268
:10340C00013B9AB2FB68DA8701237B62FDF7FEFC75
:10341C0002463B6AD31A3A6B9A4203D83B6BB3F120
:10342C00FF3F02D13B6B002B09D1FB68012283F8D3
:10343C005120FB68002283F85020032338E0FB68FE
:10344C00DB8E9BB2002B9CD1FB68DB8F9BB2002BDD
:10345C0097D13A6A396BF86800F008F90346002BEB
:10346C0008D0FB6820225A65FB68002283F85020A4
:10347C0001231DE0FB689B68002B0AD100233B61F4
:10348C00FB681B68DB683B61FB681B689B683B61E6
:10349C003B69FB68012283F85120FB68002283F80A
:1034AC005020FB685B6D002B01D0012300E0002352
:1034BC0018462837BD4680BD80B588B000AFF8608F
:1034CC00B9603B601346FB71FDF7A0FC0246BB6A7A
:1034DC009B1A3A681344FB61FDF798FCB861394BB1
:1034EC001B685B011B0DFA6902FB03F37B6154E063
:1034FC003B68B3F1FF3F50D0FDF788FC0246BB6937
:10350C00D31AFA699A4202D9FB69002B3DD1FB68A8
:10351C001B685A68FB681B6822F0E0025A60FB6863
:10352C005B68B3F5827F11D1FB689B68B3F5004FE4
:10353C0004D0FB689B68B3F5806F07D1FB681B68F0
:10354C001A68FB681B6822F040021A60FB689B6AD1
:10355C00B3F5005F0FD1FB681B681A68FB681B682A
:10356C0022F400521A60FB681B681A68FB681B681F
:10357C0042F400521A60FB68012283F85120FB6868
:10358C00002283F85020032317E07B69002B01D124
:10359C000023FB617B69013B7B61FB681B689A68BC
:1035AC00BB681340BA689A420CBF01230023DBB2FC
:1035BC001A46FB799A429BD1002318462037BD4608
:1035CC0080BD00BF0800002080B586B002AFF86057
:1035DC00B9607A60FB685B68B3F5827F11D1FB68D8
:1035EC009B68B3F5004F04D0FB689B68B3F5806F04
:1035FC0007D1FB681B681A68FB681B6822F0400245
:10360C001A60FB685B68B3F5827F17D1FB689B6817
:10361C00B3F5806F12D17B680093BB680022012147
:10362C00F868FFF749FF0346002B1AD0FB685B6D67
:10363C0043F02002FB685A65032313E07B68009378
:10364C00BB6800228021F868FFF736FF0346002B89
:10365C0007D0FB685B6D43F02002FB685A650323BF
:10366C0000E0002318461037BD4680BD80B586B0FB
:10367C0002AFF860B9607A607B680093BB68012286
:10368C000221F868FFF718FF0346002B07D0FB68F0
:10369C005B6D43F02002FB685A65032313E07B68E3
:1036AC000093BB6800228021F868FFF705FF0346F2
:1036BC00002B07D0FB685B6D43F02002FB685A655A
:1036CC00032300E0002318461037BD4680BD80B5AB
:1036DC0082B000AF78607B68002B01D1012342E0FF
:1036EC007B6893F84130DBB2002B06D17B6800225B
:1036FC0083F840207868FDF7A7F87B68242283F8CC
:10370C0041207B681B68DA687B681B6822F40052D6
:10371C00DA60786800F02CF87B681B681A697B68A3
:10372C001B6822F490421A617B681B685A697B689B
:10373C001B6822F02A025A617B681B68DA687B6876
:10374C001B6842F40052DA607B6800225A647B6882
:10375C00202283F841207B68202283F842207B685A
:10376C0000225A63002318460837BD4680BD00006E
:10377C0080B584B000AF78607B681B681B6923F44C
:10378C0040517B68DA687B681B680A431A617B6866
:10379C009A687B681B691A437B685B691343BB603F
:1037AC007B681B68DB6823F4B05323F00C037A6846
:1037BC001268B9680B43D3607B681B685B6923F4A0
:1037CC0040717B689A697B681B680A435A617B6805
:1037DC001B682C4A934203D1FFF7FCF8F86002E017
:1037EC00FFF7E4F8F860FA6813469B0013449A005C
:1037FC001A447B685B689B00B2FBF3F3224AA2FB82
:10380C0003235B091901FA6813469B0013449A00C1
:10381C001A447B685B689B00B2FBF3F21A4BA3FB68
:10382C0002035B09642000FB03F3D31A1B01323340
:10383C00154AA2FB03235B0903F0F0031944FA6851
:10384C0013469B0013449A001A447B685B689B00E8
:10385C00B2FBF3F20C4BA3FB02035B09642000FBED
:10386C0003F3D31A1B013233074AA2FB03235B0970
:10387C0003F00F027B681B680A449A6000BF103784
:10388C00BD4680BD003801401F85EB510346024404
:10389C00934200D1704703F8011BF9E770B500267D
:1038AC000C4D0D4C641BA410A64209D100F01AF863
:1038BC0000260A4D0A4C641BA410A64205D170BD0B
:1038CC0055F8043B98470136EEE755F8043B98470A
:1038DC000136F2E74439000844390008443900083D
:1038EC0048390008F8B500BFF8BC08BC9E467047C4
:0C38FC00F8B500BFF8BC08BC9E46704741
:10390800E7E7E7E7E7000000C2C2C2C2C200000062
:103918000000000000000000010203040607080977
:103928000000000001020304020304050607080959
:0C3938000A0B0C0D0E0F10100102000015
:043944003101000845
:043948000D01000865
:10394C00EEDDCCBBAA00000000127A0010000000D3
:04395C000100000066
:040000050800096581
:00000001FF
