:020000040800F2
:1000000000000220B90E0008210E0008290E000889
:10001000310E0008390E0008410E000800000000F3
:10002000000000000000000000000000490E000871
:10003000570E000800000000650E0008730E00084F
:10004000090F0008090F0008090F0008090F000830
:10005000090F0008090F0008090F0008090F000820
:10006000090F0008090F0008090F0008090F000810
:10007000090F0008090F0008090F0008090F000800
:10008000090F0008090F0008090F00080000000010
:10009000000000000000000000000000090F000840
:1000A000090F0008090F0008090F0008090F0008D0
:1000B000090F0008090F0008090F0008090F0008C0
:1000C000090F0008090F0008090F0008090F0008B0
:1000D000090F0008090F0008090F000800000000C0
:1000E000090F0008090F0008090F000800000000B0
:1000F000000000000000000000000000090F0008E0
:1001000000000000090F0008090F0008090F00088F
:1001100000000000000000000000000000000000DF
:10012000810E0008090F0008090F0008090F0008D8
:10013000090F00080000000000000000000000009F
:10014000000000000000000000000000090F00088F
:10015000090F0008090F0008090F0008090F00081F
:10016000090F0008090F000800000000000000004F
:10017000000000000000000000000000000000007F
:1001800000000000090F000800000000000000004F
:08019000090F0008090F000827
:1001980010B5054C237833B9044B13B10448AFF3B9
:1001A80000800123237010BD14000020000000000F
:1001B8008C4C000808B5034B1BB103490348AFF347
:1001C800008008BD00000000180000208C4C0008CA
:1001D80053B94AB9002908BF00281CBF4FF0FF31A6
:1001E8004FF0FF3000F088B9ADF1080C6DE904CE8E
:1001F80000F006F8DDF804E0DDE9022304B07047FA
:100208002DE9F047089D8E4604468846002B4AD1C2
:100218008A42174662D9B2FA82F64EB1C6F1200375
:1002280001FA06F820FA03F3B74043EA0808B44095
:100238004FEA174E1FFA87FCB8FBFEF1230C0EFBA2
:10024800118843EA084301FB0CF29A4209D9FB18CA
:1002580001F1FF3080F0EA809A4240F2E7800239EB
:100268003B449A1AA3B2B2FBFEF00EFB102243EAFB
:10027800024300FB0CFC9C4509D9FB1800F1FF3236
:1002880080F0D6809C4540F2D3803B44023840EA57
:100298000140A3EB0C0300211DB1F3400022C5E986
:1002A8000032BDE8F0878B4205D90DB1C5E90001E0
:1002B80000210846F5E7B3FA83F1002946D17345D2
:1002C80002D3824200F20581841A6EEB03020120F8
:1002D8009046002DE5D0C5E90048E2E7002A00F085
:1002E8009080B2FA82F6002E40F0A4808A1A030C9D
:1002F8004FEA174E80B2BCB20121B2FBFEFC0EFBE6
:100308001C2243EA024304FB0CF29A4207D9FB1869
:100318000CF1FF3802D29A4200F2E080C4469B1AE0
:10032800B3FBFEF20EFB123340EA034302FB04F474
:100338009C4207D9FB1802F1FF3002D29C4200F21E
:10034800CA8002461B1B42EA0C40A5E7C1F1200601
:100358008B4022FA06F71F430EFA01F420FA06F33F
:100368002EFA06FE4FEA1749234300FA01F81FFA4E
:1003780087FCBEFBF9F01C0C09FB10EE44EA0E44A6
:1003880000FB0CFEA64502FA01F209D93C1900F15E
:10039800FF3A80F09C80A64540F2998002383C44A0
:1003A800A4EB0E041FFA83FEB4FBF9F309FB134414
:1003B8004EEA044403FB0CFCA44508D93C1903F19C
:1003C800FF3E80F08280A4457FD9023B3C4443EA4B
:1003D8000040A4EB0C04A0FB02EC64457346E14624
:1003E80062D35FD05DB1B8EB030264EB090404FA91
:1003F80006F622FA01F31E43CC40C5E90064002149
:100408004FE7B1FBF2FC010C41EA0E4180B240EA31
:1004180001423B4638463C46B846BE462026B1FB1C
:10042800F7F1A2EB080241EA0C4166E7014618E73A
:1004380010462CE7C6F120022EFA02F3B740B1406D
:1004480020FA02F24FEA174E0A43B3FBFEF8BCB299
:100458000EFB1833110C41EA034108FB04F9B040C4
:1004680089454FEA104380B23ED9791808F1FF3C1C
:1004780001D289451FD8A1EB0901B1FBFEF909FB9F
:1004880004F80EFB191192B242EA0142424529D200
:10049800BA1809F1FF31C4D24245C2D2A9F102010A
:1004A8003A44BEE7F0459DD2BEEB02036CEB070C65
:1004B8000138E14696E7A7EB09094944A8F1020C7F
:1004C800B1FBFEF909FB04F8DBE773467FE750460A
:1004D80066E70846FDE63B44023A33E7ACF1020C16
:1004E8003B441CE749469CE7A1EB0901C446B1FB24
:1004F800FEF909FB04F8C4E7704700BF80B500AFF8
:1005080000F0F4FD00F028F800F030FA00F00EFAE0
:1005180000F08AF800F0DAF800F006F900F03AF98D
:1005280000F0DAF900F086FD0A21074800F0A6FD80
:10053800642305220549064803F0BCFF054803F07B
:1005480011FA00BFFDE700BF00000020A44C00081E
:10055800CC0100208401002080B594B000AF07F1E1
:10056800200330220021184604F060FB07F10C0339
:1005780000221A605A609A60DA601A610023BB6030
:10058800274B1B6C264A43F080531364244B1B6C87
:1005980003F08053BB60BB6800237B60214B1B6862
:1005A800204A43F4404313601E4B1B6803F4404346
:1005B8007B607B6802233B620123FB6210233B6361
:1005C8000223BB630023FB6308233B6464237B642F
:1005D8000223BB640423FB6407F12003184601F0DF
:1005E80047FF0346002B01D000F042FA0F23FB60BF
:1005F80002233B6100237B614FF48053BB610023DE
:10060800FB6107F10C030321184602F0A9F9034620
:10061800002B01D000F02CFA00BF5037BD4680BD3A
:10062800003802400070004080B584B000AF3B46FF
:1006380000221A605A609A60DA60214B214A1A60D7
:100648001F4B4FF480325A601D4B00229A601C4B9E
:1006580000221A611A4B00221A76194B002283F8DD
:100668002020174B0022DA62154B174A9A62144B66
:100678000022DA60124B0122DA61114B002283F862
:1006880030200F4B01225A610D4800F0A1FD0346AE
:10069800002B01D000F0ECF904233B6001237B60C0
:1006A8000023BB603B461946054800F0D5FD0346CC
:1006B800002B01D000F0DCF900BF1037BD4680BD2B
:1006C80030000020002001400100000F80B500AF7D
:1006D800124B134A1A60114B124A5A600F4B0022F0
:1006E8009A600E4B0022DA600C4B4FF480421A617C
:1006F8000A4B00225A61094B00229A61074B0022DB
:10070800DA61064B00221A62044801F06DFD0346C7
:10071800002B01D000F0ACF900BF80BD78000020AC
:1007280000540040A086010080B500AF174B184A5E
:100738001A60164B4FF482725A60144B00229A606A
:10074800124B0022DA60114B00221A610F4B002273
:100758005A610E4B4FF400729A610C4B0822DA6111
:100768000A4B00221A62094B00225A62074B0022E8
:100778009A62064B0A22DA62044802F0D1FA03466A
:10078800002B01D000F074F900BF80BDCC00002020
:100798000030014080B58EB000AF07F12803002279
:1007A8001A605A609A60DA6007F1200300221A6022
:1007B8005A603B1D00221A605A609A60DA601A611A
:1007C8005A619A61434B4FF080421A60414B40F2A4
:1007D800CF725A603F4B00229A603E4B40F2E7329C
:1007E800DA603C4B00221A613A4B80229A61394800
:1007F80003F068F80346002B01D000F039F94FF4F4
:100808008053BB6207F128031946324803F020FAE7
:100818000346002B01D000F02BF92E4803F0FCF81A
:100828000346002B01D000F023F900233B6200238C
:100838007B6207F120031946264803F07DFD034635
:10084800002B01D000F014F960237B602D23BB60DE
:100858000023FB6000237B613B1D002219461D48D5
:1008680003F034F90346002B01D000F001F9194BCD
:100878001B689A69174B1B6822F008029A610023CB
:10088800BB603B1D04221946124803F01FF90346BA
:10089800002B01D000F0ECF83B1D082219460D484A
:1008A80003F014F90346002B01D000F0E1F83B1DDA
:1008B8000C221946074803F009F90346002B01D01A
:1008C80000F0D6F8034800F027FA00BF3837BD46D5
:1008D80080BD00BF8401002080B500AF114B124AD3
:1008E8001A60104B4FF4E1325A600E4B00229A60A6
:1008F8000C4B0022DA600B4B00221A61094B0C22C8
:100908005A61084B00229A61064B0022DA610548B9
:1009180003F080FD0346002B01D000F0A9F800BFCA
:1009280080BD00BFCC0100200010014080B582B01E
:1009380000AF00237B600C4B1B6B0B4A43F4800316
:100948001363094B1B6B03F480037B607B680022F5
:100958000021382000F089FF382000F0A2FF00BFF6
:100968000837BD4680BD00BF0038024080B58AB058
:1009780000AF07F1140300221A605A609A60DA6027
:100988001A6100233B61374B1B6B364A43F0040363
:100998001363344B1B6B03F004033B613B69002377
:1009A800FB60304B1B6B2F4A43F0800313632D4BC6
:1009B8001B6B03F08003FB60FB680023BB60294BC3
:1009C8001B6B284A43F001031363264B1B6B03F090
:1009D8000103BB60BB6800237B60224B1B6B214A71
:1009E80043F0020313631F4B1B6B03F002037B608E
:1009F8007B6800224FF4C0411B4801F0DBFB00225A
:100A080005211A4801F0D6FB4FF4C0437B6101234E
:100A1800BB610023FB6100233B6207F11403194605
:100A2800114801F043FA05237B610123BB610023D0
:100A3800FB6100233B6207F1140319460B4801F0E0
:100A480035FA02237B610023BB610023FB6107F1B8
:100A580014031946054801F029FA00BF2837BD4696
:100A680080BD00BF00380240000802400004024078
:100A780080B400AF72B600BF00BFFDE780B483B09A
:100A880000AF00237B60104B5B6C0F4A43F480433C
:100A980053640D4B5B6C03F480437B607B680023DD
:100AA8003B60094B1B6C084A43F080531364064BA8
:100AB8001B6C03F080533B603B6800BF0C37BD469E
:100AC8005DF8047B704700BF0038024080B58AB0EB
:100AD80000AF786007F1140300221A605A609A6028
:100AE800DA601A617B681B68174A934227D1002392
:100AF8003B61164B5B6C154A43F480735364134B8C
:100B08005B6C03F480733B613B690023FB600F4B14
:100B18001B6B0E4A43F0010313630C4B1B6B03F072
:100B28000103FB60FB6810237B610323BB61002387
:100B3800FB6107F114031946054801F0B7F900BF36
:100B48002837BD4680BD00BF002001400038024064
:100B58000000024080B58AB000AF786007F1140346
:100B680000221A605A609A60DA601A617B681B6812
:100B7800194A93422BD100233B61184B1B6B174A30
:100B880043F002031363154B1B6B03F002033B6135
:100B98003B69C0237B611223BB610023FB610323F4
:100BA8003B6204237B6207F1140319460C4801F0E9
:100BB8007DF90023FB60094B1B6C084A43F40013C2
:100BC8001364064B1B6C03F40013FB60FB6800BF47
:100BD8002837BD4680BD00BF0054004000380240A1
:100BE8000004024080B58AB000AF786007F11403B2
:100BF80000221A605A609A60DA601A617B681B6882
:100C0800304A93425AD100233B612F4B5B6C2E4AEA
:100C180043F4805353642C4B5B6C03F480533B6167
:100C28003B690023FB60284B1B6B274A43F00103F9
:100C38001363254B1B6B03F00103FB60FB68E02388
:100C48007B610223BB610023FB6103233B62052315
:100C58007B6207F1140319461C4801F027F91C4B65
:100C68001C4A1A601A4B4FF0C0625A60184B002297
:100C78009A60174B0022DA60154B4FF480621A61B4
:100C8800134B00225A61124B00229A61104B4FF409
:100C98008072DA610E4B00221A620D4B00225A62F2
:100CA8000B4800F019FE0346002B01D0FFF7E0FEC9
:100CB8007B68074ADA64064A7B68936300BF283773
:100CC800BD4680BD003001400038024000000240AF
:100CD800240100201064024080B485B000AF786021
:100CE8007B681B68B3F1804F0DD10023FB60094B73
:100CF8001B6C084A43F001031364064B1B6C03F09A
:100D08000103FB60FB6800BF1437BD465DF8047B38
:100D1800704700BF0038024080B588B000AF7860E7
:100D280007F10C0300221A605A609A60DA601A61AF
:100D38007B681B68B3F1804F1DD10023BB60104B4B
:100D48001B6B0F4A43F0010313630D4B1B6B03F03E
:100D58000103BB60BB680F23FB6002233B610023D8
:100D68007B610023BB610123FB6107F10C0319467A
:100D7800044801F09BF800BF2037BD4680BD00BF86
:100D8800003802400000024080B58AB000AF7860A9
:100D980007F1140300221A605A609A60DA601A6137
:100DA8007B681B68194A93422CD100233B61184B7E
:100DB8005B6C174A43F010035364154B5B6C03F0EC
:100DC80010033B613B690023FB60114B1B6B104A0E
:100DD80043F0010313630E4B1B6B03F00103FB602D
:100DE800FB684FF4C0637B610223BB610023FB6196
:100DF80003233B6207237B6207F114031946054866
:100E080001F054F800BF2837BD4680BD00100140EE
:100E1800003802400000024080B400AF00BFFDE788
:100E280080B400AF00BFFDE780B400AF00BFFDE7AE
:100E380080B400AF00BFFDE780B400AF00BFFDE79E
:100E480080B400AF00BFBD465DF8047B704780B436
:100E580000AF00BFBD465DF8047B704780B400AFAB
:100E680000BFBD465DF8047B704780B500AF00F059
:100E78008FF900BF80BD000080B500AF024800F0C8
:100E8800D9FD00BF80BD00BF2401002080B400AFA1
:100E9800064BD3F88830054A43F47003C2F888300B
:100EA80000BFBD465DF8047B704700BF00ED00E061
:100EB800DFF834D0FFF7EAFF0C480D490D4A00234C
:100EC80002E0D458C4500433C4188C42F9D30A4AF7
:100ED8000A4C002301E013600432A242FBD303F062
:100EE800ADFEFFF70BFB704700000220000000205A
:100EF80014000020DC4C0008140000201802002018
:100F0800FEE7000080B500AF00220421024801F08E
:100F180051F900BF80BD00BF0004024080B500AF9A
:100F280001220421024801F045F900BF80BD00BF3D
:100F38000004024080B500AF01220121024801F0FF
:100F480039F900BF80BD00BF0004024080B500AF82
:100F580000220121024801F02DF900BF80BD00BF29
:100F68000004024080B584B000AF03460A46FB7116
:100F78001346BB71FB7943F02003DBB23B73BB79AB
:100F88007B73FFF7BFFF07F10C014FF47A7302225E
:100F9800044801F04EFFFFF7C1FF00BF1037BD4600
:100FA80080BD00BFCC00002080B586B000AF0346EE
:100FB800B9607A60FB73FB7B43F02003DBB23B75BF
:100FC800FFF7A0FF07F1140164230122084801F08C
:100FD80030FF7B689AB24FF47A73B968044801F01D
:100FE80028FFFFF79BFF00BF1837BD4680BD00BF35
:100FF800CC00002080B584B000AF0346FB7100230D
:10100800FB73FFF77FFFF91D64230122084801F0F5
:1010180010FF07F10F0164230122054802F04DF883
:10102800FFF77CFFFB7B18461037BD4680BD00BF2D
:10103800CC00002080B500AFFFF788FF002100201A
:10104800FFF790FF00210120FFF78CFF002102200D
:10105800FFF788FF03210320FFF784FF0021042006
:10106800FFF780FF00210520FFF77CFF0E210620F7
:10107800FFF778FFFFF75EFF00BF80BD80B584B043
:1010880000AF78600B46FB70FFF760FFFB781946EE
:101098000520FFF767FF0220FFF7ACFF0346FB734D
:1010A800FB7B43F00203FB73FB7B19460220FFF72F
:1010B80059FF052279680B20FFF776FF20211220BF
:1010C800FFF750FF0020FFF795FF0346BB73BB7B7C
:1010D80043F00303BB73BB7B19460020FFF742FFB5
:1010E800FFF728FF00BF1037BD4680BD80B500AFB1
:1010F8000E4B1B680D4A43F4007313600B4B1B68BF
:101108000A4A43F480631360084B1B68074A43F498
:1011180080731360032000F09DFB0F2000F008F897
:10112800FFF7ACFC0023184680BD00BF003C02401E
:1011380080B582B000AF7860124B1A68124B1B78EA
:1011480019464FF47A73B3FBF1F3B2FBF3F3184685
:1011580000F0B5FB0346002B01D001230EE07B68AD
:101168000F2B0AD8002279684FF0FF3000F07DFB82
:10117800064A7B681360002300E0012318460837FD
:10118800BD4680BD08000020100000200C00002093
:1011980080B400AF064B1B781A46064B1B681344F5
:1011A800044A136000BFBD465DF8047B704700BF6A
:1011B800100000201402002080B400AF034B1B680D
:1011C8001846BD465DF8047B704700BF1402002036
:1011D80080B584B000AF78600023FB737B68002B78
:1011E80001D1012333E07B681B6C002B09D178689F
:1011F800FFF76CFC7B6800225A647B68002283F846
:101208003C207B681B6C03F01003002B18D17B6813
:101218001B6C23F4885323F0020343F002027B681B
:101228001A64786800F04AF97B6800225A647B687F
:101238001B6C23F0030343F001027B681A6401E08E
:101248000123FB737B68002283F83C20FB7B184654
:101258001037BD4680BD000080B485B000AF78600F
:1012680039600023BB607B6893F83C30012B01D1C7
:10127800022313E17B68012283F83C203B681B684A
:10128800092B25D97B681B68D9683B681B689BB20A
:101298001A4613465B0013441E3B072202FA03F367
:1012A800DA437B681B680A40DA607B681B68D96888
:1012B8003B689A683B681B689BB2184603465B000C
:1012C80003441E3B9A407B681B680A43DA6022E0AD
:1012D8007B681B6819693B681B689BB21A461346F2
:1012E8005B001344072202FA03F3DA437B681B68A6
:1012F8000A401A617B681B6819693B689A683B68F1
:101308001B689BB2184603465B0003449A407B68FF
:101318001B680A431A613B685B68062B24D87B6804
:101328001B68596B3B685A6813469B001344053B7E
:101338001F2202FA03F3DA437B681B680A405A63E8
:101348007B681B68596B3B681B689BB218463B68F7
:101358005A6813469B001344053B00FA03F27B6866
:101368001B680A435A634CE03B685B680C2B24D823
:101378007B681B68196B3B685A6813469B001344CB
:10138800233B1F2202FA03F3DA437B681B680A40F7
:101398001A637B681B68196B3B681B689BB218460D
:1013A8003B685A6813469B001344233B00FA03F238
:1013B8007B681B680A431A6323E07B681B68D96A49
:1013C8003B685A6813469B001344413B1F2202FAAC
:1013D80003F3DA437B681B680A40DA627B681B68A0
:1013E800D96A3B681B689BB218463B685A68134623
:1013F8009B001344413B00FA03F27B681B680A43D5
:10140800DA62294BFB607B681B68284A93420FD13C
:101418003B681B68122B0BD1FB685B6823F4000246
:10142800FB685A60FB685B6843F48002FB685A609B
:101438007B681B681D4A93422BD13B681B681C4A7A
:10144800934203D03B681B68112B22D1FB685B6871
:1014580023F48002FB685A60FB685B6843F400026F
:10146800FB685A603B681B68114A934211D1114BC3
:101478001B68114AA2FB03239A0C13469B001344D2
:101488005B00BB6002E0BB68013BBB60BB68002B34
:10149800F9D17B68002283F83C20002318461437D2
:1014A800BD465DF8047B70470023014000200140E1
:1014B800120000100800002083DE1B4380B485B0B2
:1014C80000AF7860794BFB60FB685B6823F44032BF
:1014D800FB685A60FB685A687B685B681A43FB685C
:1014E8005A607B681B685A687B681B6822F48072A4
:1014F8005A607B681B6859687B681B691A027B689D
:101508001B680A435A607B681B685A687B681B68BB
:1015180022F040725A607B681B6859687B689A6839
:101528007B681B680A435A607B681B689A687B68FB
:101538001B6822F400629A607B681B6899687B6864
:10154800DA687B681B680A439A607B689B6A584A1A
:10155800934222D07B681B689A687B681B6822F0DC
:1015680070629A607B681B6899687B689A6A7B6876
:101578001B680A439A607B681B689A687B681B68CB
:1015880022F040529A607B681B6899687B68DA6A27
:101598007B681B680A439A600FE07B681B689A683F
:1015A8007B681B6822F070629A607B681B689A6887
:1015B8007B681B6822F040529A607B681B689A68B7
:1015C8007B681B6822F002029A607B681B68996836
:1015D8007B681B7E5A007B681B680A439A607B689D
:1015E80093F82030002B1BD07B681B685A687B68F7
:1015F8001B6842F400625A607B681B685A687B6803
:101608001B6822F460425A607B681B6859687B68D3
:101618005B6A013B5A037B681B680A435A6007E010
:101628007B681B685A687B681B6822F400625A60F2
:101638007B681B68DA6A7B681B6822F47002DA62CE
:101648007B681B68D96A7B68DB69013B1A057B6884
:101658001B680A43DA627B681B689A687B681B68A8
:1016680022F400729A607B681B6899687B6893F81B
:1016780030305A027B681B680A439A607B681B6893
:101688009A687B681B6822F480629A607B681B6892
:1016980099687B685B699A027B681B680A439A6051
:1016A80000BF1437BD465DF8047B70470023014036
:1016B8000100000F80B485B000AF78607B6803F04C
:1016C8000703FB600C4BDB68BB60BA684FF6FF038F
:1016D8001340BB60FB681A02BB68134343F0BF6347
:1016E80043F40033BB60044ABB68D36000BF1437BF
:1016F800BD465DF8047B704700ED00E080B400AFA4
:10170800044BDB681B0A03F007031846BD465DF867
:10171800047B704700ED00E080B483B000AF03465F
:10172800FB7197F90730002B0BDBFB7903F01F02E5
:10173800074997F907305B09012000FA02F241F8DE
:10174800232000BF0C37BD465DF8047B704700BFFF
:1017580000E100E080B483B000AF03463960FB715C
:1017680097F90730002B0ADB3B68DAB20C4997F986
:1017780007301201D2B20B4483F800230AE03B6819
:10178800DAB20849FB7903F00F03043B1201D2B225
:101798000B441A7600BF0C37BD465DF8047B7047D2
:1017A80000E100E000ED00E080B489B000AFF8602F
:1017B800B9607A60FB6803F00703FB61FB69C3F15A
:1017C8000703042B28BF0423BB61FB690433062BE2
:1017D80002D9FB69033B00E000237B614FF0FF3235
:1017E800BB6902FA03F3DA43BB681A407B699A4083
:1017F8004FF0FF317B6901FA03F3D9437B680B4053
:10180800134318462437BD465DF8047B7047000033
:1018180080B582B000AF78607B68013BB3F1807F10
:1018280001D301230FE00A4A7B68013B53600F2173
:101838004FF0FF30FFF78EFF054B00229A60044BF4
:1018480007221A60002318460837BD4680BD00BF2E
:1018580010E000E080B582B000AF78607868FFF7EC
:1018680029FF00BF0837BD4680BD80B586B000AFF0
:101878000346B9607A60FB7300237B61FFF73EFF84
:1018880078617A68B9687869FFF78EFF024697F938
:101898000F3011461846FFF75DFF00BF1837BD46E9
:1018A80080BD80B582B000AF0346FB7197F9073061
:1018B8001846FFF731FF00BF0837BD4680BD80B529
:1018C80082B000AF78607868FFF7A2FF0346184639
:1018D8000837BD4680BD000080B586B000AF78608F
:1018E80000237B61FFF768FC38617B68002B01D11E
:1018F800012399E07B68022283F835207B68002267
:1019080083F834207B681B681A687B681B6822F0A0
:1019180001021A600FE0FFF74FFC02463B69D31A39
:10192800052B08D97B6820225A657B68032283F837
:101938003520032378E07B681B681B6803F00103EC
:10194800002BE8D17B681B681B687B617A69384B80
:1019580013407B617B685A687B689B681A437B6885
:10196800DB681A437B681B691A437B685B691A4307
:101978007B689B691A437B68DB691A437B681B6A2F
:1019880013437A6913437B617B685B6A042B07D135
:101998007B68DA6A7B681B6B13437A6913437B6144
:1019A8007B681B687A691A607B681B685B697B6166
:1019B8007B6923F007037B617B685B6A7A69134361
:1019C8007B617B685B6A042B17D17B689B6A7A69A9
:1019D80013437B617B68DB6A002B0ED0786800F0CC
:1019E800E9F90346002B08D07B6840225A657B68DA
:1019F800012283F83520012316E07B681B687A6989
:101A08005A61786800F0A0F90346FB607B68DB6DDB
:101A18003F229A40FB689A607B6800225A657B687F
:101A2800012283F83520002318461837BD4680BDAB
:101A38003F8010F080B586B000AF78600023BB60AF
:101A48008E4B1B688E4AA2FB03239B0A7B617B6833
:101A58009B6D3B613B691B68FB607B68DB6D082203
:101A68009A40FB681340002B1AD07B681B681B68E0
:101A780003F00403002B13D07B681B681A687B688B
:101A88001B6822F004021A607B68DB6D08229A400A
:101A98003B699A607B685B6D43F001027B685A651D
:101AA8007B68DB6D01229A40FB681340002B12D043
:101AB8007B681B685B6903F08003002B0BD07B6895
:101AC800DB6D01229A403B699A607B685B6D43F04D
:101AD80002027B685A657B68DB6D04229A40FB68CA
:101AE8001340002B12D07B681B681B6803F00203AD
:101AF800002B0BD07B68DB6D04229A403B699A600F
:101B08007B685B6D43F004027B685A657B68DB6D1C
:101B180010229A40FB681340002B43D07B681B6857
:101B28001B6803F00803002B3CD07B68DB6D102298
:101B38009A403B699A607B681B681B6803F48023A2
:101B4800002B18D07B681B681B6803F40023002B4C
:101B580008D17B681B6C002B24D07B681B6C7868D1
:101B680098471FE07B689B6C002B1BD07B689B6CA5
:101B78007868984716E07B681B681B6803F48073D5
:101B8800002B07D17B681B681A687B681B6822F0EA
:101B980008021A607B681B6C002B03D07B681B6CE7
:101BA800786898477B68DB6D20229A40FB68134071
:101BB800002B00F08F807B681B681B6803F0100304
:101BC800002B00F087807B68DB6D20229A403B6900
:101BD8009A607B6893F83530DBB2052B36D17B6889
:101BE8001B681A687B681B6822F016021A607B68FB
:101BF8001B685A697B681B6822F080025A617B68FF
:101C08001B6C002B03D17B689B6C002B07D07B6877
:101C18001B681A687B681B6822F008021A607B68D8
:101C2800DB6D3F229A403B699A607B68012283F80A
:101C380035207B68002283F834207B681B6D002BDD
:101C48007ED07B681B6D7868984779E07B681B6855
:101C58001B6803F48023002B1DD07B681B681B685E
:101C680003F40023002B0DD17B685B6C002B31D073
:101C78007B685B6C786898472CE000BF0800002000
:101C8800B5814E1B7B68DB6B002B23D07B68DB6B3D
:101C9800786898471EE07B681B681B6803F48073AC
:101CA800002B0FD17B681B681A687B681B6822F0C1
:101CB80010021A607B68012283F835207B680022B5
:101CC80083F834207B68DB6B002B03D07B68DB6BED
:101CD800786898477B685B6D002B32D07B685B6DBA
:101CE80003F00103002B22D07B68052283F83520FE
:101CF8007B681B681A687B681B6822F001021A60FF
:101D0800BB680133BB607A699A4207D37B681B685A
:101D18001B6803F00103002BF2D100E000BF7B68D1
:101D2800012283F835207B68002283F834207B6801
:101D3800DB6C002B05D07B68DB6C7868984700E08B
:101D480000BF1837BD4680BD80B485B000AF78604D
:101D58007B681B68DBB2103B144AA2FB03231B09F8
:101D6800FB60134AFB6813441B781A467B68DA65E4
:101D7800FB68032B09D97B681B6823F47F7323F066
:101D880003031A1D7B689A6507E07B681B6823F4C8
:101D98007F7323F003037A6893657B689B6D18460D
:101DA8001437BD465DF8047B704700BFABAAAAAAEA
:101DB800C44C000880B485B000AF78600023FB7382
:101DC8007B689B6ABB607B689B69002B1FD1BB68E3
:101DD800032B56D801A252F823F000BFF51D0008C6
:101DE800071E0008F51D00088B1E00087B68DB6ACB
:101DF80003F08073002B46D00123FB7343E07B681C
:101E0800DB6AB3F1C07F40D10123FB733DE07B68FF
:101E18009B69B3F5005F21D1BB68032B37D801A2BA
:101E280052F823F03D1E0008431E00083D1E00081E
:101E3800551E00080123FB7330E07B68DB6A03F062
:101E48008073002B25D00123FB7322E07B68DB6ABB
:101E5800B3F1C07F1FD10123FB731CE0BB68022BC9
:101E680003D9BB68032B03D018E00123FB7315E0EB
:101E78007B68DB6A03F08073002B0ED00123FB73B1
:101E88000BE000BF0AE000BF08E000BF06E000BFAB
:101E980004E000BF02E000BF00E000BFFB7B184683
:101EA8001437BD465DF8047B704700BF80B489B025
:101EB80000AF7860396000237B6100233B61002319
:101EC800BB610023FB6159E10122FB6902FA03F3BC
:101ED8007B613B681B687A6913403B613A697B699F
:101EE8009A4240F048813B685B6803F00303012B8A
:101EF80005D03B685B6803F00303022B30D17B6895
:101F08009B68BB61FB695B00032202FA03F3DB43B6
:101F1800BA691340BB613B68DA68FB695B0002FA87
:101F280003F3BA691343BB617B68BA699A607B683B
:101F38005B68BB610122FB6902FA03F3DB43BA6900
:101F48001340BB613B685B681B0903F00102FB6936
:101F580002FA03F3BA691343BB617B68BA695A6032
:101F68003B685B6803F00303032B17D07B68DB68CF
:101F7800BB61FB695B00032202FA03F3DB43BA6926
:101F88001340BB613B689A68FB695B0002FA03F384
:101F9800BA691343BB617B68BA69DA603B685B68FE
:101FA80003F00303022B23D1FB69DA087B680832AC
:101FB80053F82230BB61FB6903F007039B000F2233
:101FC80002FA03F3DB43BA691340BB613B681A6941
:101FD800FB6903F007039B0002FA03F3BA69134392
:101FE800BB61FB69DA087B680832B96943F82210DB
:101FF8007B681B68BB61FB695B00032202FA03F381
:10200800DB43BA691340BB613B685B6803F00302BA
:10201800FB695B0002FA03F3BA691343BB617B688F
:10202800BA691A603B685B6803F44033002B00F020
:10203800A2800023FB60574B5B6C564A43F48043F5
:102048005364544B5B6C03F48043FB60FB68524A57
:10205800FB699B08023352F82330BB61FB6903F02C
:1020680003039B000F2202FA03F3DB43BA69134010
:10207800BB617B68494A934219D07B68484A9342BE
:1020880013D07B68474A93420DD07B68464A9342F7
:1020980007D07B68454A934201D1042308E007230F
:1020A80006E0032304E0022302E0012300E000230A
:1020B800FA6902F0030292009340BA691343BB61C4
:1020C8003549FB699B080233BA6941F82320384B2C
:1020D8009B68BB613B69DB43BA691340BB613B68E2
:1020E8005B6803F48013002B03D0BA693B69134380
:1020F800BB612F4ABB6993602D4BDB68BB613B69B1
:10210800DB43BA691340BB613B685B6803F40013A7
:10211800002B03D0BA693B691343BB61244ABB69EE
:10212800D360234B5B68BB613B69DB43BA691340EF
:10213800BB613B685B6803F40033002B03D0BA69CA
:102148003B691343BB611A4ABB695360184B1B6850
:10215800BB613B69DB43BA691340BB613B685B68A1
:1021680003F48033002B03D0BA693B691343BB6186
:102178000F4ABB691360FB690133FB61FB690F2BD5
:102188007FF6A2AE00BF00BF2437BD465DF8047BD2
:10219800704700BF0038024000380140000002408C
:1021A8000004024000080240000C024000100240F7
:1021B800003C014080B483B000AF78600B467B8060
:1021C80013467B707B78002B03D07A887B689A61F2
:1021D80003E07B881A047B689A6100BF0C37BD4610
:1021E8005DF8047B7047000080B584B000AF78606C
:1021F8007B68002B01D101232BE17B6893F83D30EC
:10220800DBB2002B06D17B68002283F83C2078687B
:10221800FEF7A0FC7B68242283F83D207B681B68BE
:102228001A687B681B6822F001021A607B681B68C9
:102238001A687B681B6842F400421A607B681B6856
:102248001A687B681B6822F400421A6000F040FD9F
:10225800F8607B685B68814A934207D8FB68804ACC
:10226800934294BF01230023DBB206E0FB687D4A5A
:10227800934294BF01230023DBB2002B01D001233A
:10228800E7E0FB68784AA2FB03239B0CBB607B68F2
:102298001B685B6823F03F017B681B68BA680A43C8
:1022A8005A607B681B681B6A23F03F017B685B6888
:1022B8006A4A934202D8BB68013309E0BB684FF40D
:1022C800967202FB03F3694AA2FB03239B090133BD
:1022D8007A6812680B4313627B681B68DB6923F416
:1022E8004F4222F0FF027B685B685C498B4219D839
:1022F800FB68591E7B685B685B00B1FBF3F3591CF4
:1023080040F6FC730B40002B0AD0FB68591E7B6813
:102318005B685B00B1FBF3F30133C3F30B0351E0DC
:1023280004234FE07B689B68002B11D1FB68581E83
:102338007B6859680B465B000B44B0FBF3F3013331
:10234800C3F30B03002B0CBF01230023DBB212E005
:10235800FB68581E7B6859680B469B000B44990024
:102368000B44B0FBF3F30133C3F30B03002B0CBF97
:1023780001230023DBB2002B01D0012322E07B687C
:102388009B68002B0ED1FB68581E7B6859680B466A
:102398005B000B44B0FBF3F30133C3F30B0343F4CB
:1023A80000430FE0FB68581E7B6859680B469B008A
:1023B8000B4499000B44B0FBF3F30133C3F30B0355
:1023C80043F44043796809681343CB617B681B6811
:1023D8001B6823F0C0017B68DA697B681B6A1A43B3
:1023E8007B681B680A431A607B681B689B6823F438
:1023F800034323F0FF037A6811697A68D2681143AE
:102408007A6812680B4393607B681B68DB6823F06B
:10241800FF017B685A697B689B691A437B681B6864
:102428000A43DA607B681B681A687B681B6842F09D
:1024380001021A607B6800221A647B68202283F8F4
:102448003D207B6800221A637B68002283F83E20C7
:10245800002318461037BD4680BD00BFA086010086
:102468007F841E00FF083D0083DE1B43D34D6210AE
:1024780080B586B000AF78607B68002B01D101235E
:1024880067E27B681B6803F00103002B75D0884B5B
:102498009B6803F00C03042B0CD0854B9B6803F05E
:1024A8000C03082B12D1824B5B6803F48003B3F54D
:1024B800800F0BD17E4B1B6803F40033002B5BD0DD
:1024C8007B685B68002B57D1012342E27B685B681D
:1024D800B3F5803F06D1764B1B68754A43F48033C9
:1024E80013601DE07B685B68B3F5A02F0CD1704BBF
:1024F8001B686F4A43F4802313606D4B1B686C4A5A
:1025080043F4803313600BE0694B1B68684A23F47B
:1025180080331360664B1B68654A23F4802313607D
:102528007B685B68002B13D0FEF746FE386108E035
:10253800FEF742FE02463B69D31A642B01D90323F6
:1025480007E25B4B1B6803F40033002BF0D014E068
:10255800FEF732FE386108E0FEF72EFE02463B69C0
:10256800D31A642B01D90323F3E1514B1B6803F4FD
:102578000033002BF0D100E000BF7B681B6803F03C
:102588000203002B63D04A4B9B6803F00C03002B1B
:102598000BD0474B9B6803F00C03082B1CD1444B12
:1025A8005B6803F48003002B16D1414B1B6803F0D2
:1025B8000203002B05D07B68DB68012B01D00123C7
:1025C800C7E13B4B1B6823F0F8027B681B69DB0003
:1025D800374913430B603AE07B68DB68002B20D057
:1025E800344B01221A60FEF7E7FD386108E0FEF778
:1025F800E3FD02463B69D31A022B01D90323A8E164
:102608002B4B1B6803F00203002BF0D0284B1B68F0
:1026180023F0F8027B681B69DB00254913430B6034
:1026280015E0244B00221A60FEF7C6FD386108E069
:10263800FEF7C2FD02463B69D31A022B01D90323D8
:1026480087E11B4B1B6803F00203002BF0D17B686A
:102658001B6803F00803002B36D07B685B69002BEE
:1026680016D0154B01221A60FEF7A6FD386108E066
:10267800FEF7A2FD02463B69D31A022B01D90323B8
:1026880067E10B4B5B6F03F00203002BF0D01BE0FC
:10269800094B00221A60FEF78FFD38610EE0FEF745
:1026A8008BFD02463B69D31A022B07D9032350E15D
:1026B8000038024000004742800E4742884B5B6F5B
:1026C80003F00203002BEAD17B681B6803F00403C4
:1026D800002B00F097800023FB75814B1B6C03F0E7
:1026E8008053002B0FD10023BB607D4B1B6C7C4AB1
:1026F80043F0805313647A4B1B6C03F08053BB6028
:10270800BB680123FB75774B1B6803F48073002BB0
:1027180018D1744B1B68734A43F480731360FEF737
:102728004BFD386108E0FEF747FD02463B69D31AC6
:10273800022B01D903230CE16A4B1B6803F4807355
:10274800002BF0D07B689B68012B06D1644B1B6F74
:10275800634A43F0010313671CE07B689B68052B01
:102768000CD15F4B1B6F5E4A43F0040313675C4B4D
:102778001B6F5B4A43F0010313670BE0584B1B6F59
:10278800574A23F001031367554B1B6F544A23F034
:10279800040313677B689B68002B15D0FEF70CFDBC
:1027A80038610AE0FEF708FD02463B69D31A41F298
:1027B8008832934201D90323CBE0494B1B6F03F0C6
:1027C8000203002BEED014E0FEF7F6FC38610AE0B5
:1027D800FEF7F2FC02463B69D31A41F28832934273
:1027E80001D90323B5E03E4B1B6F03F00203002B16
:1027F800EED1FB7D012B05D1394B1B6C384A23F0F8
:10280800805313647B689B69002B00F0A180344BD4
:102818009B6803F00C03082B5CD07B689B69022B38
:1028280041D1314B00221A60FEF7C6FC386108E03E
:10283800FEF7C2FC02463B69D31A022B01D90323D7
:1028480087E0274B1B6803F00073002BF0D17B68EF
:10285800DA697B681B6A1A437B685B6A9B011A43C7
:102868007B689B6A5B08013B1B041A437B68DB6A35
:102878001B061B4913434B601B4B01221A60FEF7D2
:102888009BFC386108E0FEF797FC02463B69D31AC7
:10289800022B01D903235CE0114B1B6803F0007382
:1028A800002BF0D054E0104B00221A60FEF784FC95
:1028B800386108E0FEF780FC02463B69D31A022B18
:1028C80001D9032345E0064B1B6803F00073002B76
:1028D800F0D13DE07B689B69012B07D1012338E0EB
:1028E8000038024000700040600047421B4B5B68A4
:1028F800FB607B689B69012B28D0FB6803F480028E
:102908007B68DB699A4221D1FB6803F03F027B6850
:102918001B6A9A421AD1FA6847F6C07313407A685C
:10292800526A9201934211D1FB6803F440327B68EA
:102938009B6A5B08013B1B049A4207D1FB6803F0C2
:1029480070627B68DB6A1B069A4201D0012300E0B3
:10295800002318461837BD4680BD00BF0038024026
:1029680080B584B000AF786039607B68002B01D1F6
:102978000123CCE0684B1B6803F007033A689A42CE
:102988000CD9654B3A68D2B21A70634B1B6803F0D6
:1029980007033A689A4201D00123B8E07B681B68B4
:1029A80003F00203002B20D07B681B6803F00403AC
:1029B800002B05D0594B9B68584A43F4E053936069
:1029C8007B681B6803F00803002B05D0534B9B68FA
:1029D800524A43F460439360504B9B6823F0F002E3
:1029E8007B689B684D4913438B607B681B6803F0C9
:1029F8000103002B44D07B685B68012B07D1474B50
:102A08001B6803F40033002B19D101237FE07B6896
:102A18005B68022B03D07B685B68032B07D13F4BB5
:102A28001B6803F00073002B09D101236FE03B4BB7
:102A38001B6803F00203002B01D1012367E0374B29
:102A48009B6823F003027B685B68344913438B60FF
:102A5800FEF7B2FBF8600AE0FEF7AEFB0246FB6841
:102A6800D31A41F28832934201D903234FE02B4B0A
:102A78009B6803F00C027B685B689B009A42EBD171
:102A8800254B1B6803F007033A689A420CD2224B85
:102A98003A68D2B21A70204B1B6803F007033A68F1
:102AA8009A4201D0012332E07B681B6803F00403DB
:102AB800002B08D0194B9B6823F4E0527B68DB6835
:102AC800164913438B607B681B6803F00803002BCF
:102AD80009D0124B9B6823F460427B681B69DB00BA
:102AE8000E4913438B6000F021F802460B4B9B689C
:102AF8001B0903F00F030A49CB5C22FA03F3094AC6
:102B08001360094B1B681846FEF712FB0023184692
:102B18001037BD4680BD00BF003C0240003802406F
:102B2800AC4C0008080000200C0000202DE9B04F34
:102B380090B000AF00237B630023FB6300233B635B
:102B48000023BB63594B9B6803F00C03082B0DD083
:102B5800082B00F2A180002B02D0042B03D09BE0AD
:102B6800534BBB639BE0534BBB6398E04F4B5B6895
:102B780003F03F037B634D4B5B6803F48003002B3A
:102B880028D04A4B5B689B0900223B627A623B6A09
:102B9800C3F308000021474B03FB01F2002300FBAD
:102BA80003F31344434AA0FB0212FA620A46BA62CC
:102BB800FA6A1344FB627B6B0022BB61FA61D7E9B6
:102BC8000623D7E90A01FDF703FB02460B46134625
:102BD800FB6353E0354B5B689B0900223B617A61DC
:102BE8003B69C3F3080A4FF0000B52465B464FF0AF
:102BF80000004FF00001590141EAD261500102463C
:102C08000B46B2EB0A0863EB0B094FF000024FF0DA
:102C180000034FEA891343EA98634FEA8812B2EB3C
:102C2800080463EB09054FF000024FF00003EB00C6
:102C380043EA5473E20014461D4614EB0A033B6052
:102C480045EB0B037B604FF000024FF00003D7E920
:102C5800004529468B02214643EA915321468A02C0
:102C6800104619467B6B0022BB60FA60D7E9022345
:102C7800FDF7AEFA02460B461346FB630B4B5B6847
:102C88001B0C03F0030301335B003B63FA6B3B6BE4
:102C9800B2FBF3F3BB6302E0054BBB6300BFBB6B46
:102CA80018464037BD46BDE8B08F00BF0038024027
:102CB8000024F40040787D0180B400AF034B1B680A
:102CC8001846BD465DF8047B704700BF0800002029
:102CD80080B500AFFFF7F0FF0246054B9B689B0AE3
:102CE80003F007030349CB5C22FA03F3184680BDBF
:102CF80000380240BC4C000880B500AFFFF7DCFF8D
:102D08000246054B9B685B0B03F007030349CB5C4A
:102D180022FA03F3184680BD00380240BC4C000874
:102D280080B582B000AF78607B68002B01D10123A9
:102D38007BE07B685B6A002B08D17B685B68B3F536
:102D4800827F09D07B680022DA6105E07B68002277
:102D58001A617B6800225A617B6800229A627B684C
:102D680093F85130DBB2002B06D17B68002283F840
:102D780050207868FDF736FF7B68022283F85120DF
:102D88007B681B681A687B681B6822F040021A601F
:102D98007B685B6803F482727B689B6803F4044376
:102DA8001A437B68DB6803F400631A437B681B697A
:102DB80003F002031A437B685B6903F001031A43BB
:102DC8007B689B6903F400731A437B68DB6903F033
:102DD80038031A437B681B6A03F0800342EA030145
:102DE8007B689B6A03F400527B681B680A431A607D
:102DF8007B689B691B0C03F004017B685B6A03F02A
:102E080010027B681B680A435A607B681B68DA6992
:102E18007B681B6822F40062DA617B6800225A65CD
:102E28007B68012283F85120002318460837BD46E5
:102E380080BD80B588B000AFF860B9603B601346CC
:102E4800FB80FEF7B9F9F861FB887B83FB6893F890
:102E58005130DBB2012B01D002232AE1BB68002BE1
:102E680002D0FB88002B01D1012322E1FB6893F8F3
:102E78005030012B01D102231BE1FB68012283F8AA
:102E88005020FB68032283F85120FB6800225A6512
:102E9800FB68BA681A63FB68FA889A86FB68FA883E
:102EA800DA86FB6800229A63FB6800229A87FB682F
:102EB8000022DA87FB6800225A64FB6800221A6441
:102EC800FB689B68B3F5004F0FD1FB681B681A6855
:102ED800FB681B6822F040021A60FB681B681A68CE
:102EE800FB681B6842F480421A60FB681B681B6819
:102EF80003F04003402B07D0FB681B681A68FB6887
:102F08001B6842F040021A60FB68DB68B3F5006F8B
:102F180052D1FB685B68002B02D07B8B012B45D11B
:102F2800FB681B6B1A88FB681B68DA60FB681B6B05
:102F38009A1CFB681A63FB68DB8E9BB2013B9AB252
:102F4800FB68DA8632E0FB681B689B6803F00203C3
:102F5800022B12D1FB681B6B1A88FB681B68DA60AE
:102F6800FB681B6B9A1CFB681A63FB68DB8E9BB2C1
:102F7800013B9AB2FB68DA8618E0FEF71DF90246B3
:102F8800FB69D31A3A689A4203D83B68B3F1FF3F0A
:102F980002D13B68002B09D1FB68012283F851203C
:102FA800FB68002283F85020032382E0FB68DB8E55
:102FB8009BB2002BC7D153E0FB685B68002B02D0A3
:102FC8007B8B012B47D1FB681A6BFB681B680C33A2
:102FD80012781A70FB681B6B5A1CFB681A63FB6833
:102FE800DB8E9BB2013B9AB2FB68DA8633E0FB6862
:102FF8001B689B6803F00203022B13D1FB681A6B52
:10300800FB681B680C3312781A70FB681B6B5A1C20
:10301800FB681A63FB68DB8E9BB2013B9AB2FB68C4
:10302800DA8618E0FEF7C8F80246FB69D31A3A6850
:103038009A4203D83B68B3F1FF3F02D13B68002BAB
:1030480009D1FB68012283F85120FB68002283F82C
:10305800502003232DE0FB68DB8E9BB2002BC6D1EA
:10306800FA693968F86800F0D9FB0346002B02D0EA
:10307800FB6820225A65FB689B68002B0AD1002355
:103088007B61FB681B68DB687B61FB681B689B686E
:103098007B617B69FB68012283F85120FB68002271
:1030A80083F85020FB685B6D002B01D0012300E002
:1030B800002318462037BD4680BD80B588B002AFD2
:1030C800F860B9603B601346FB80FB6893F85130A9
:1030D800DBB2012B01D0022304E1BB68002B02D034
:1030E800FB88002B01D10123FCE0FB685B68B3F58A
:1030F800827F12D1FB689B68002B0ED1FB680422EB
:1031080083F85120FA883B6800931346BA68B96877
:10311800F86800F0EBF80346E4E0FEF74DF8786154
:10312800FB6893F85030012B01D10223DAE0FB68E9
:10313800012283F85020FB68042283F85120FB68A1
:1031480000225A65FB68BA689A63FB68FA889A870E
:10315800FB68FA88DA87FB6800221A63FB6800229A
:103168009A86FB680022DA86FB6800221A64FB68EC
:1031780000225A64FB689B68B3F5004F0FD1FB68C7
:103188001B681A68FB681B6822F040021A60FB681B
:103198001B681A68FB681B6822F480421A60FB6887
:1031A8001B681B6803F04003402B07D0FB681B68B3
:1031B8001A68FB681B6842F040021A60FB68DB680B
:1031C800002B70D135E0FB681B689B6803F0010396
:1031D800012B15D1FB681B6803F10C02FB689B6B84
:1031E8001278D2B21A70FB689B6B5A1CFB689A6300
:1031F800FB68DB8F9BB2013B9AB2FB68DA8718E069
:10320800FDF7DAFF02467B69D31A3A689A4203D877
:103218003B68B3F1FF3F02D13B68002B09D1FB6843
:10322800012283F85120FB68002283F850200323F1
:1032380058E0FB68DB8F9BB2002BC4D138E0FB68F9
:103248001B689B6803F00103012B13D1FB681B6803
:10325800DA68FB689B6B92B21A80FB689B6B9A1CBE
:10326800FB689A63FB68DB8F9BB2013B9AB2FB68F1
:10327800DA8718E0FDF7A0FF02467B69D31A3A689F
:103288009A4203D83B68B3F1FF3F02D13B68002B59
:1032980009D1FB68012283F85120FB68002283F8DA
:1032A800502003231EE0FB68DB8F9BB2002BC6D1A6
:1032B8007A693968F86800F04BFA0346002B02D0A7
:1032C800FB6820225A65FB68012283F85120FB68BD
:1032D800002283F85020FB685B6D002B01D001238E
:1032E80000E0002318461837BD4680BD80B58AB077
:1032F80000AFF860B9607A607B8001237B62FDF7DC
:103308005BFF3862FB6893F85130FB77FB685B68BA
:10331800BB617B88FB82FB7F012B0CD0BB69B3F5BB
:10332800827F06D1FB689B68002B02D1FB7F042BB0
:1033380001D002237FE1BB68002B05D07B68002BFE
:1033480002D07B88002B01D1012374E1FB6893F83C
:103358005030012B01D102236DE1FB68012283F873
:103368005020FB6893F85130DBB2042B03D0FB6884
:10337800052283F85120FB6800225A65FB687A68A9
:103388009A63FB687A88DA87FB687A889A87FB6889
:10339800BA681A63FB687A88DA86FB687A889A863C
:1033A800FB6800221A64FB6800225A64FB681B68E9
:1033B8001B6803F04003402B07D0FB681B681A68A2
:1033C800FB681B6842F040021A60FB68DB68B3F5D3
:1033D800006F7ED1FB685B68002B02D0FB8A012B53
:1033E8006CD1FB681B6B1A88FB681B68DA60FB688A
:1033F8001B6B9A1CFB681A63FB68DB8E9BB2013B54
:103408009AB2FB68DA8659E0FB681B689B6803F090
:103418000203022B1BD1FB68DB8E9BB2002B16D05C
:103428007B6A012B13D1FB681B6B1A88FB681B682E
:10343800DA60FB681B6B9A1CFB681A63FB68DB8EFF
:103448009BB2013B9AB2FB68DA8600237B62FB6879
:103458001B689B6803F00103012B19D1FB68DB8F04
:103468009BB2002B14D0FB681B68DA68FB689B6B67
:1034780092B21A80FB689B6B9A1CFB689A63FB6884
:10348800DB8F9BB2013B9AB2FB68DA8701237B6230
:10349800FDF792FE02463B6AD31A3A6B9A420DD860
:1034A8003B6BB3F1FF3F09D0FB68012283F8512041
:1034B800FB68002283F850200323BCE0FB68DB8E06
:1034C8009BB2002BA0D1FB68DB8F9BB2002B9BD15A
:1034D80082E0FB685B68002B02D0FB8A012B71D16C
:1034E800FB681A6BFB681B680C3312781A70FB6850
:1034F8001B6B5A1CFB681A63FB68DB8E9BB2013B93
:103508009AB2FB68DA865DE0FB681B689B6803F08B
:103518000203022B1CD1FB68DB8E9BB2002B17D059
:103528007B6A012B14D1FB681A6BFB681B680C3390
:1035380012781A70FB681B6B5A1CFB681A63FB68CD
:10354800DB8E9BB2013B9AB2FB68DA8600237B6272
:10355800FB681B689B6803F00103012B19D1FB680A
:10356800DB8F9BB2002B14D0FB681B68DA68FB6802
:103578009B6BD2B21A70FB689B6B5A1CFB689A63F0
:10358800FB68DB8F9BB2013B9AB2FB68DA870123A9
:103598007B62FDF711FE02463B6AD31A3A6B9A42E8
:1035A80003D83B6BB3F1FF3F02D13B6B002B09D132
:1035B800FB68012283F85120FB68002283F8502021
:1035C800032338E0FB68DB8E9BB2002B9CD1FB68A1
:1035D800DB8F9BB2002B97D13A6A396BF86800F001
:1035E8001DF90346002B08D0FB6820225A65FB68AA
:1035F800002283F8502001231DE0FB689B68002B04
:103608000AD100233B61FB681B68DB683B61FB68F0
:103618001B689B683B613B69FB68012283F851206A
:10362800FB68002283F85020FB685B6D002B01D0FB
:10363800012300E0002318462837BD4680BD00005E
:1036480080B588B000AFF860B9603B601346FB7185
:10365800FDF7B2FD0246BB6A9B1A3A681344FB6148
:10366800FDF7AAFDB861394B1B685B011B0DFA69B0
:1036780002FB03F37B6155E03B68B3F1FF3F51D098
:10368800FDF79AFD0246BB69D31AFA699A4202D934
:10369800FB69002B3DD1FB681B685A68FB681B68F7
:1036A80022F0E0025A60FB685B68B3F5827F11D1B3
:1036B800FB689B68B3F5004F04D0FB689B68B3F5C3
:1036C800806F07D1FB681B681A68FB681B6822F0CB
:1036D80040021A60FB689B6AB3F5005F0FD1FB6874
:1036E8001B681A68FB681B6822F400521A60FB68A2
:1036F8001B681A68FB681B6842F400521A60FB6872
:10370800012283F85120FB68002283F8502003230C
:1037180018E07B69002B02D10023FB6102E07B6982
:10372800013B7B61FB681B689A68BB681340BA68F9
:103738009A420CBF01230023DBB21A46FB799A4256
:103748009AD1002318462037BD4680BD08000020C6
:1037580080B586B002AFF860B9607A60FB685B68D4
:10376800B3F5827F11D1FB689B68B3F5004F04D095
:10377800FB689B68B3F5806F07D1FB681B681A6804
:10378800FB681B6822F040021A60FB685B68B3F5AF
:10379800827F2AD1FB689B68B3F5806F12D07B6863
:1037A8000093BB6800228021F868FFF749FF0346B1
:1037B800002B2DD0FB685B6D43F02002FB685A6537
:1037C800032326E07B680093BB6800220121F86888
:1037D800FFF736FF0346002B1AD0FB685B6D43F0FA
:1037E8002002FB685A65032313E07B680093BB68DB
:1037F80000220121F868FFF723FF0346002B07D0BA
:10380800FB685B6D43F02002FB685A65032300E008
:10381800002318461037BD4680BD000080B588B02B
:1038280002AFF860B9607A607B680093BB680122D8
:103838000221F868FFF704FF0346002B07D0FB6856
:103848005B6D43F02002FB685A65032332E01B4B93
:103858001B681B4AA2FB03235B0D4FF47A7202FB21
:1038680003F37B61FB685B68B3F5827F12D17B68E9
:103878000093BB6800228021F868FFF7E1FE034649
:10388800002B16D0FB685B6D43F02002FB685A657D
:1038980003230FE07B69002B0AD07B69013B7B6126
:1038A800FB681B689B6803F08003802BF2D000E064
:1038B80000BF002318461837BD4680BD0800002009
:1038C800819F5E1680B582B000AF78607B68002B60
:1038D80001D1012341E07B6893F83D30DBB2002B36
:1038E80006D17B68002283F83C207868FDF7F4F95C
:1038F8007B68022283F83D207B681A687B68043362
:103908001946104600F06CFA7B68012283F84620BD
:103918007B68012283F83E207B68012283F83F20E0
:103928007B68012283F840207B68012283F84120CC
:103938007B68012283F842207B68012283F84320B8
:103948007B68012283F844207B68012283F84520A4
:103958007B68012283F83D20002318460837BD46BE
:1039680080BD000080B485B000AF78607B6893F8B4
:103978003D30DBB2012B01D001233CE07B68022201
:1039880083F83D207B681B681E4A934218D07B68E9
:103998001B68B3F1804F13D07B681B681A4A9342A7
:1039A8000ED07B681B68194A934209D07B681B6854
:1039B800174A934204D07B681B68164A934211D178
:1039C8007B681B689B6803F00703FB60FB68062B9A
:1039D80010D07B681B681A687B681B6842F001027C
:1039E8001A6007E07B681B681A687B681B6842F0EE
:1039F80001021A60002318461437BD465DF8047B9F
:103A0800704700BF0000014000040040000800406B
:103A1800000C00400040014080B582B000AF7860E3
:103A28007B68002B01D1012341E07B6893F83D308E
:103A3800DBB2002B06D17B68002283F83C20786833
:103A480000F039F87B68022283F83D207B681A6809
:103A58007B6804331946104600F0C2F97B680122DE
:103A680083F846207B68012283F83E207B68012288
:103A780083F83F207B68012283F840207B6801227D
:103A880083F841207B68012283F842207B68012269
:103A980083F843207B68012283F844207B68012255
:103AA80083F845207B68012283F83D2000231846CF
:103AB8000837BD4680BD80B483B000AF786000BFD2
:103AC8000C37BD465DF8047B7047000080B586B0B2
:103AD80000AFF860B9607A600023FB75FB6893F863
:103AE8003C30012B01D10223AEE0FB68012283F8B0
:103AF8003C207B680C2B00F29F8001A252F823F037
:103B08003D3B0008413C0008413C0008413C00089E
:103B18007D3B0008413C0008413C0008413C00084E
:103B2800BF3B0008413C0008413C0008413C0008FC
:103B3800FF3B0008FB681B68B968184600F0D6F917
:103B4800FB681B689A69FB681B6842F008029A6167
:103B5800FB681B689A69FB681B6822F004029A617B
:103B6800FB681B689969BB681A69FB681B680A438C
:103B78009A6164E0FB681B68B968184600F01CFA93
:103B8800FB681B689A69FB681B6842F400629A61CB
:103B9800FB681B689A69FB681B6822F480629A615B
:103BA800FB681B689969BB681B691A02FB681B687C
:103BB8000A439A6143E0FB681B68B968184600F03D
:103BC80067FAFB681B68DA69FB681B6842F0080241
:103BD800DA61FB681B68DA69FB681B6822F004027B
:103BE800DA61FB681B68D969BB681A69FB681B68DE
:103BF8000A43DA6123E0FB681B68B968184600F0DD
:103C0800B1FAFB681B68DA69FB681B6842F400625A
:103C1800DA61FB681B68DA69FB681B6822F480625A
:103C2800DA61FB681B68D969BB681B691A02FB6803
:103C38001B680A43DA6102E00123FB7500BFFB68D9
:103C4800002283F83C20FB7D18461837BD4680BD0E
:103C580080B584B000AF786039600023FB737B685F
:103C680093F83C30012B01D10223B4E07B68012298
:103C780083F83C207B68022283F83D207B681B6820
:103C88009B68BB60BB6823F07703BB60BB6823F409
:103C98007F43BB607B681B68BA689A603B681B6897
:103CA800B3F5005F3ED0B3F5005F00F28780B3F54F
:103CB800805F00F08680B3F5805F7FD8702B1AD0C4
:103CC800702B7BD8602B50D0602B77D8502B3CD0F2
:103CD800502B73D8402B58D0402B6FD8302B64D042
:103CE800302B6BD8202B60D0202B67D8002B5CD0D2
:103CF800102B5AD062E07B6818683B6899683B686B
:103D08005A683B68DB6800F0F7FA7B681B689B68B9
:103D1800BB60BB6843F07703BB607B681B68BA680D
:103D28009A604FE07B6818683B6899683B685A68F6
:103D38003B68DB6800F0E0FA7B681B689A687B6880
:103D48001B6842F480429A603CE07B6818683B68D4
:103D580059683B68DB681A4600F054FA7B681B68B0
:103D68005021184600F0ADFA2CE07B6818683B68D3
:103D780059683B68DB681A4600F073FA7B681B6871
:103D88006021184600F09DFA1CE07B6818683B68C3
:103D980059683B68DB681A4600F034FA7B681B6890
:103DA8004021184600F08DFA0CE07B681A683B68E1
:103DB8001B681946104600F084FA03E00123FB73E0
:103DC80000E000BF7B68012283F83D207B68002269
:103DD80083F83C20FB7B18461037BD4680BD0000A9
:103DE80080B485B000AF786039607B681B68FB6081
:103DF8007B68374A93420FD07B68B3F1804F0BD072
:103E08007B68344A934207D07B68334A934203D095
:103E18007B68324A934208D1FB6823F07003FB6049
:103E28003B685B68FA681343FB607B68284A9342E7
:103E38001BD07B68B3F1804F17D07B68254A93422B
:103E480013D07B68244A93420FD07B68234A93425D
:103E58000BD07B68224A934207D07B68214A934261
:103E680003D07B68204A934208D1FB6823F440734F
:103E7800FB603B68DB68FA681343FB60FB6823F070
:103E880080023B685B691343FB603B689A687B6808
:103E9800DA623B681A687B689A627B680C4A9342CC
:103EA80003D13B681A697B681A637B681B6843F017
:103EB80004027B681A607B6801225A617B68FA6891
:103EC8001A6000BF1437BD465DF8047B704700BF19
:103ED800000001400004004000080040000C0040C1
:103EE80000400140004401400048014080B487B0D0
:103EF80000AF786039607B681B6A7B617B681B6AEE
:103F080023F001027B681A627B685B683B617B680F
:103F18009B69FB60FB6823F07003FB60FB6823F080
:103F28000303FB603B681B68FA681343FB607B690B
:103F380023F002037B613B689B687A6913437B61CA
:103F48007B681C4A93420CD17B6923F008037B6190
:103F58003B68DB687A6913437B617B6923F0040360
:103F68007B617B68134A934211D13B6923F48073C8
:103F78003B613B6923F400733B613B685B693A69C9
:103F880013433B613B689B693A6913433B617B6818
:103F98003A695A607B68FA689A613B685A687B6834
:103FA8005A637B687A691A6200BF1C37BD465DF8A0
:103FB800047B70470000014080B487B000AF786090
:103FC80039607B681B6A7B617B681B6A23F010027F
:103FD8007B681A627B685B683B617B689B69FB60F6
:103FE800FB6823F4E043FB60FB6823F44073FB6049
:103FF8003B681B681B02FA681343FB607B6923F06C
:1040080020037B613B689B681B017A6913437B61D2
:104018007B681E4A93420DD17B6923F080037B6144
:104028003B68DB681B017A6913437B617B6923F07A
:1040380040037B617B68154A934213D13B6923F4A3
:1040480080633B613B6923F400633B613B685B69C8
:104058009B003A6913433B613B689B699B003A6943
:1040680013433B617B683A695A607B68FA689A61D6
:104078003B685A687B689A637B687A691A6200BFF2
:104088001C37BD465DF8047B704700BF0000014047
:1040980080B487B000AF786039607B681B6A7B6149
:1040A8007B681B6A23F480727B681A627B685B6892
:1040B8003B617B68DB69FB60FB6823F07003FB6096
:1040C800FB6823F00303FB603B681B68FA68134333
:1040D800FB607B6923F400737B613B689B681B0270
:1040E8007A6913437B617B681D4A93420DD17B69D2
:1040F80023F400637B613B68DB681B027A69134326
:104108007B617B6923F480637B617B68144A9342FB
:1041180013D13B6923F480533B613B6923F400537B
:104128003B613B685B691B013A6913433B613B6830
:104138009B691B013A6913433B617B683A695A6082
:104148007B68FA68DA613B685A687B68DA637B687F
:104158007A691A6200BF1C37BD465DF8047B704758
:104168000000014080B487B000AF786039607B6898
:104178001B6A3B617B681B6A23F480527B681A6266
:104188007B685B687B617B68DB69FB60FB6823F4A9
:10419800E043FB60FB6823F44073FB603B681B68EB
:1041A8001B02FA681343FB603B6923F400533B612D
:1041B8003B689B681B033A6913433B617B68104A61
:1041C800934209D17B6923F480437B613B685B6937
:1041D8009B017A6913437B617B687A695A607B68C3
:1041E800FA68DA613B685A687B681A647B683A69DE
:1041F8001A6200BF1C37BD465DF8047B704700BFDC
:104208000000014080B487B000AFF860B9607A6000
:10421800FB681B6A7B61FB681B6A23F00102FB6871
:104228001A62FB689B693B613B6923F0F0033B61C1
:104238007B681B013A6913433B617B6923F00A03DE
:104248007B617A69BB6813437B61FB683A699A6151
:10425800FB687A691A6200BF1C37BD465DF8047BAB
:10426800704780B487B000AFF860B9607A60FB68C7
:104278001B6A7B61FB681B6A23F01002FB681A62E9
:10428800FB689B693B613B6923F470433B617B6836
:104298001B033A6913433B617B6923F0A0037B61ED
:1042A800BB681B017A6913437B61FB683A699A61B1
:1042B800FB687A691A6200BF1C37BD465DF8047B4B
:1042C800704780B485B000AF786039607B689B68C0
:1042D800FB60FB6823F07003FB603A68FB681343DC
:1042E80043F00703FB607B68FA689A6000BF1437E5
:1042F800BD465DF8047B704780B487B000AFF860B6
:10430800B9607A603B60FB689B687B617B6923F4DA
:104318007F437B613B681A027B681A43BB6813437F
:104328007A6913437B61FB687A699A6000BF1C371E
:10433800BD465DF8047B704780B485B000AF7860F7
:1043480039607B6893F83C30012B01D1022350E09F
:104358007B68012283F83C207B68022283F83D2099
:104368007B681B685B68FB607B681B689B68BB603D
:10437800FB6823F07003FB603B681B68FA68134313
:10438800FB607B681B68FA685A607B681B681C4A7C
:10439800934218D07B681B68B3F1804F13D07B68B9
:1043A8001B68184A93420ED07B681B68164A9342D2
:1043B80009D07B681B68154A934204D07B681B6848
:1043C800134A93420CD1BB6823F08003BB603B685F
:1043D8005B68BA681343BB607B681B68BA689A60FD
:1043E8007B68012283F83D207B68002283F83C200B
:1043F800002318461437BD465DF8047B704700BF9C
:10440800000001400004004000080040000C00408B
:104418000040014080B582B000AF78607B68002B17
:1044280001D1012342E07B6893F84130DBB2002BD5
:1044380006D17B68002283F840207868FCF7A4FC4A
:104448007B68242283F841207B681B68DA687B68D4
:104458001B6822F40052DA60786800F073F97B6810
:104468001B681A697B681B6822F490421A617B6892
:104478001B685A697B681B6822F02A025A617B68AC
:104488001B68DA687B681B6842F40052DA607B6854
:1044980000225A647B68202283F841207B6820220E
:1044A80083F842207B6800225A63002318460837A5
:1044B800BD4680BD80B58AB002AFF860B9603B6088
:1044C8001346FB8000237B61FB6893F84130DBB225
:1044D800202B75D1BB68002B02D0FB88002B01D1A3
:1044E80001236EE0FB6800225A64FB68212283F8EE
:1044F8004120FCF761FE7861FB68FA889A84FB68C2
:10450800FA88DA84FB689B68B3F5805F08D1FB689A
:104518001B69002B04D10023FB61BB68BB6103E06E
:10452800BB68FB610023BB612EE03B6800937B699D
:1045380000228021F86800F048F80346002B05D0D7
:10454800FB68202283F8412003233AE0FB69002B13
:104558000BD1BB691B881A46FB681B68C2F30802AB
:104568005A60BB690233BB6107E0FB691A78FB68D4
:104578001B685A60FB690133FB61FB68DB8C9BB2EB
:10458800013B9AB2FB68DA84FB68DB8C9BB2002B98
:10459800CBD13B6800937B6900224021F86800F08A
:1045A80014F80346002B05D0FB68202283F841202D
:1045B800032306E0FB68202283F84120002300E063
:1045C800022318462037BD4680BD80B586B000AFAF
:1045D800F860B9603B601346FB713BE03B6AB3F19E
:1045E800FF3F37D0FCF7E8FD02463B68D31A3A6A2A
:1045F8009A4202D33B6A002B01D103233AE0FB68BD
:104608001B68DB6803F00403002B23D0BB68802BF6
:1046180020D0BB68402B1DD0FB681B681B6803F0CB
:104628000803082B16D100237B61FB681B681B68F5
:104638007B61FB681B685B687B617B69F86800F0DD
:104648001DF8FB6808225A64FB68002283F84020A2
:1046580001230FE0FB681B681A68BB681340BA683F
:104668009A420CBF01230023DBB21A46FB799A4217
:10467800B4D0002318461837BD4680BD80B495B025
:1046880000AF78607B681B680C337B637B6B53E8F7
:10469800003F3B633B6B23F49073FB647B681B68B0
:1046A8000C33FA6C3A64FB63F96B3A6C41E800230B
:1046B800BB63BB6B002BE5D17B681B6814333B6283
:1046C8003B6A53E8003FFB61FB6923F00103BB64CD
:1046D8007B681B681433BA6CFA62BB62B96AFA6AFF
:1046E80041E800237B627B6A002BE5D17B681B6B6A
:1046F800012B19D17B681B680C33FB60FB6853E8FE
:10470800003FBB60BB6823F010037B647B681B68B9
:104718000C337A6CBA617B617969BA6941E8002324
:104728003B613B69002BE5D17B68202283F842205E
:104738007B6800221A6300BF5437BD465DF8047BCE
:10474800704700002DE9B04FC0B000AFC7F8F400C3
:10475800D7F8F4301B681B6923F44050D7F8F430BD
:10476800D968D7F8F4301A6840EA01031361D7F81A
:10477800F4309A68D7F8F4301B691A43D7F8F43044
:104788005B691A43D7F8F430DB691343C7F8F8308C
:10479800D7F8F4301B68DB6823F4164121F00C01CC
:1047A800D7F8F4301A68D7F8F8300B43D360D7F845
:1047B800F4301B685B6923F44070D7F8F4309969CA
:1047C800D7F8F4301A6840EA01035361D7F8F43097
:1047D8001A688F4B9A4205D0D7F8F4301A688D4B77
:1047E8009A4204D1FEF788FAC7F8FC0003E0FEF706
:1047F8006FFAC7F8FC00D7F8F430DB69B3F5004F5F
:1048080040F00C81D7F8FC300022C7F8E830C7F830
:10481800EC20D7E93A4522462B469118B9655B4109
:10482800FB65D7E91623214612EB0108294643EB1D
:1048380001094FF000024FF000034FEAC90343EAB1
:1048480058734FEAC80290469946234618EB03036B
:10485800C7F8E0302B4649EB0303C7F8E430D7F834
:10486800F4305B680022C7F8D830C7F8DC20D7E9F5
:1048780036120B46DB183B65134642EB03037B6598
:10488800D7E91423D7E93801FBF7A2FC02460B4607
:10489800614BA3FB02235B091C01D7F8FC30002203
:1048A800C7F8D030C7F8D420D7E9348942464B46F8
:1048B8009118B9645B41FB64D7E91223414612EBB6
:1048C800010A494643EB010B4FF000024FF0000389
:1048D8004FEACB0343EA5A734FEACA0292469B4611
:1048E80043461AEB0303C7F8C8304B464BEB0303A8
:1048F800C7F8CC30D7F8F4305B680022C7F8C0306E
:10490800C7F8C420D7E930120B46DB183B641346BE
:1049180042EB03037B64D7E91023D7E93201FBF7A5
:1049280057FC02460B4611463B4BA3FB01235B0990
:10493800642202FB03F3CB1ADB0003F13202364B8D
:10494800A3FB02235B095B0003F4F8731C44D7F84C
:10495800FC300022C7F8B830C7F8BC20D7E92E8948
:1049680042464B469118B9635B41FB63D7E90E2376
:1049780041465118396349464B417B634FF0000269
:104988004FF00003D7E90CAB5946CB00514643EA38
:1049980051735146CA0010461946034642469B18B1
:1049A800C7F8B0304B460A4642EB0303C7F8B430A9
:1049B800D7F8F4305B680022C7F8A830C7F8AC20F5
:1049C800D7E92A120B46DB18BB62134642EB0303F6
:1049D800FB62D7E90A23D7E92C01FBF7F9FB02466A
:1049E8000B460D4BA3FB02135B09642101FB03F388
:1049F800D31ADB003233084AA2FB03235B0903F016
:104A08000702D7F8F4301B6822449A6006E100BF19
:104A180000100140001401401F85EB51D7F8FC300D
:104A28000022C7F8A030C7F8A420D7E92889424651
:104A38004B46911839625B417B62D7E908234146AE
:104A48005418494643EB01054FF000024FF00003AC
:104A5800EB0043EA5473E20014461D464346E3184C
:104A6800C7F898304B4645EB0303C7F89C30D7F896
:104A7800F4305B680022C7F89030C7F894204FF0F4
:104A880000024FF00003D7E9244529468B00214650
:104A980043EA917321468A00D7E92601FBF798FB80
:104AA80002460B46604BA3FB02235B091C01D7F8A7
:104AB800FC300022C7F88830C7F88C20D7E9228953
:104AC80042464B469118B9615B41FB61D7E9062321
:104AD80041465118396149464B417B614FF000020C
:104AE8004FF00003D7E904AB5946CB00514643EADF
:104AF80051735146CA0010461946034642469B1850
:104B0800C7F880304B460A4642EB0303C7F88430A7
:104B1800D7F8F4305B680022BB67FA674FF00002F1
:104B28004FF00003D7E91E8949468B00414643EA06
:104B3800917341468A00D7E92001FBF749FB0246F9
:104B48000B461146384BA3FB01235B09642202FB89
:104B580003F3CB1A1B013233334AA2FB03235B094D
:104B680003F0F0031C44D7F8FC3000223B677A6757
:104B7800D7E91C8942464B469118B9605B41FB60F6
:104B8800D7E9022341465118396049464B417B60B9
:104B98004FF000024FF00003D7E900AB5946CB00B5
:104BA800514643EA51735146CA0010461946034616
:104BB80042469B18BB664B460A4642EB0303FB661C
:104BC800D7F8F4305B6800223B667A664FF0000243
:104BD8004FF00003D7E9188949468B00414643EA5C
:104BE800917341468A00D7E91A01FBF7F1FA0246A8
:104BF8000B460D4BA3FB02135B09642101FB03F376
:104C0800D31A1B013233084AA2FB03235B0903F0C2
:104C18000F02D7F8F4301B6822449A6000BF07F5EA
:104C28008077BD46BDE8B08F1F85EB51024403462F
:104C3800934200D1704703F8011BF9E770B50D4D99
:104C48000D4C641BA4100026A64209D10B4D0C4C38
:104C580000F018F8641BA4100026A64205D170BD08
:104C680055F8043B98470136EEE755F8043B98475A
:104C78000136F2E7D44C0008D44C0008D44C0008A4
:104C8800D84C0008F8B500BFF8BC08BC9E46704771
:0C4C9800F8B500BFF8BC08BC9E46704791
:104CA400746573740A000000000000000000000036
:104CB40001020304060708090000000001020304BE
:084CC400000610160006101690
:084CCC003CB5FF7F0100000070
:044CD400BD01000816
:044CD8009901000836
:104CDC00EEDDCCBBAA0000000024F40010000000A4
:044CEC0001000000C3
:0400000508000EB928
:00000001FF
